{
  "transactions": [
    {
      "hash": "0xc5262e63f218af118aa2200746951e3cefa29007c3646581a91b0037472088b0",
      "transactionType": "CALL",
      "contractName": null,
      "contractAddress": "0xedf51a48277b84310a9357dfca20694cfb368542",
      "function": "approve(address,uint256)",
      "arguments": [
        "0x1a72A9767ef977Fb5542E0428F97AE2b753f387e",
        "100"
      ],
      "transaction": {
        "from": "0xb1f0982e02f9f71e60512fd47471d76610ccb556",
        "to": "0xedf51a48277b84310a9357dfca20694cfb368542",
        "gas": "0x10772",
        "value": "0x0",
        "input": "0x095ea7b30000000000000000000000001a72a9767ef977fb5542e0428f97ae2b753f387e0000000000000000000000000000000000000000000000000000000000000064",
        "nonce": "0x14",
        "chainId": "0x82"
      },
      "additionalContracts": [],
      "isFixedGasLimit": false
    },
    {
      "hash": "0x3e7b1b120a5b099c48dac383556fbe2ffb63f547593122460a536ffe53fdf528",
      "transactionType": "CALL",
      "contractName": null,
      "contractAddress": "0x1a72a9767ef977fb5542e0428f97ae2b753f387e",
      "function": "fillOrder(((address,address,uint24,int24,address),address,bool,uint256,uint160),bytes)",
      "arguments": [
        "((0x636FB6089D431cccC43B526d5473de09D4C546C6, 0xeDF51A48277B84310a9357dFca20694cFb368542, 8388608, 60, 0xF2B5a7060eE08Ee602ab0f98869F77Ddf6a66888), 0xb1F0982E02f9F71E60512fd47471d76610CcB556, true, 100, 79228162514264337593543950336)",
        "0x0000000000000000000000001a72a9767ef977fb5542e0428f97ae2b753f387e"
      ],
      "transaction": {
        "from": "0xb1f0982e02f9f71e60512fd47471d76610ccb556",
        "to": "0x1a72a9767ef977fb5542e0428f97ae2b753f387e",
        "gas": "0x36ad2",
        "value": "0x0",
        "input": "0x23ee3f42000000000000000000000000636fb6089d431cccc43b526d5473de09d4c546c6000000000000000000000000edf51a48277b84310a9357dfca20694cfb3685420000000000000000000000000000000000000000000000000000000000800000000000000000000000000000000000000000000000000000000000000000003c000000000000000000000000f2b5a7060ee08ee602ab0f98869f77ddf6a66888000000000000000000000000b1f0982e02f9f71e60512fd47471d76610ccb556000000000000000000000000000000000000000000000000000000000000000100000000000000000000000000000000000000000000000000000000000000640000000000000000000000000000000000000001000000000000000000000000000000000000000000000000000000000000000000000000000000000000014000000000000000000000000000000000000000000000000000000000000000200000000000000000000000001a72a9767ef977fb5542e0428f97ae2b753f387e",
        "nonce": "0x15",
        "chainId": "0x82"
      },
      "additionalContracts": [],
      "isFixedGasLimit": false
    }
  ],
  "receipts": [
    {
      "status": "0x1",
      "cumulativeGasUsed": "0xb423",
      "logs": [
        {
          "address": "0xedf51a48277b84310a9357dfca20694cfb368542",
          "topics": [
            "0x8c5be1e5ebec7d5bd14f71427d1e84f3dd0314c0f7b2291e5b200ac8c7c3b925",
            "0x000000000000000000000000b1f0982e02f9f71e60512fd47471d76610ccb556",
            "0x0000000000000000000000001a72a9767ef977fb5542e0428f97ae2b753f387e"
          ],
          "data": "0x0000000000000000000000000000000000000000000000000000000000000064",
          "blockHash": "0x3f6408910ec61e2dec37e5b570a308cd06600bb3041394f0236a38926a47619e",
          "blockNumber": "0x1e261c1",
          "blockTimestamp": "0x690b8aec",
          "transactionHash": "0xc5262e63f218af118aa2200746951e3cefa29007c3646581a91b0037472088b0",
          "transactionIndex": "0x0",
          "logIndex": "0x0",
          "removed": false
        }
      ],
      "logsBloom": "0x00000000000000000000000000000000000000000000000000000000000000000000000000000000000000000000000000008080000000000000000000200000000000000000000000000000000000000010000000000000000000000000000000000000000000000000000000000000000000000000000000000000000000000000000000000000000000000000000000000000000000000080000000000000020000000000000000000000000000000000000200000000000000000000010000000000000000000000000000000000000000000000000000000000010000000010000000000000000000000000004000000000000000000080000000000000",
      "type": "0x2",
      "transactionHash": "0xc5262e63f218af118aa2200746951e3cefa29007c3646581a91b0037472088b0",
      "transactionIndex": "0x0",
      "blockHash": "0x3f6408910ec61e2dec37e5b570a308cd06600bb3041394f0236a38926a47619e",
      "blockNumber": "0x1e261c1",
      "gasUsed": "0xb423",
      "effectiveGasPrice": "0xe1c",
      "blobGasPrice": "0x1",
      "from": "0xb1f0982e02f9f71e60512fd47471d76610ccb556",
      "to": "0xedf51a48277b84310a9357dfca20694cfb368542",
      "contractAddress": null
    },
    {
      "status": "0x1",
      "cumulativeGasUsed": "0x2795c",
      "logs": [
        {
          "address": "0xedf51a48277b84310a9357dfca20694cfb368542",
          "topics": [
            "0xddf252ad1be2c89b69c2b068fc378daa952ba7f163c4a11628f55a4df523b3ef",
            "0x000000000000000000000000b1f0982e02f9f71e60512fd47471d76610ccb556",
            "0x0000000000000000000000001a72a9767ef977fb5542e0428f97ae2b753f387e"
          ],
          "data": "0x0000000000000000000000000000000000000000000000000000000000000064",
          "blockHash": "0x9712e501b2956dcf8d483ecb6fa8817576fc6820bd81eac5f2db61d54e81c6a0",
          "blockNumber": "0x1e261c2",
          "blockTimestamp": "0x690b8aec",
          "transactionHash": "0x3e7b1b120a5b099c48dac383556fbe2ffb63f547593122460a536ffe53fdf528",
          "transactionIndex": "0x0",
          "logIndex": "0x0",
          "removed": false
        },
        {
          "address": "0xedf51a48277b84310a9357dfca20694cfb368542",
          "topics": [
            "0x8c5be1e5ebec7d5bd14f71427d1e84f3dd0314c0f7b2291e5b200ac8c7c3b925",
            "0x0000000000000000000000001a72a9767ef977fb5542e0428f97ae2b753f387e",
            "0x000000000000000000000000f2b5a7060ee08ee602ab0f98869f77ddf6a66888"
          ],
          "data": "0x0000000000000000000000000000000000000000000000000000000000000064",
          "blockHash": "0x9712e501b2956dcf8d483ecb6fa8817576fc6820bd81eac5f2db61d54e81c6a0",
          "blockNumber": "0x1e261c2",
          "blockTimestamp": "0x690b8aec",
          "transactionHash": "0x3e7b1b120a5b099c48dac383556fbe2ffb63f547593122460a536ffe53fdf528",
          "transactionIndex": "0x0",
          "logIndex": "0x1",
          "removed": false
        },
        {
          "address": "0x1f98400000000000000000000000000000000004",
          "topics": [
            "0x1b3d7edb2e9c0b0e7c525b20aaaef0f5940d2ed71663c7d39266ecafac728859",
            "0x000000000000000000000000f2b5a7060ee08ee602ab0f98869f77ddf6a66888",
            "0x000000000000000000000000b1f0982e02f9f71e60512fd47471d76610ccb556",
            "0x000000000000000000000000636fb6089d431cccc43b526d5473de09d4c546c6"
          ],
          "data": "0x000000000000000000000000f2b5a7060ee08ee602ab0f98869f77ddf6a668880000000000000000000000000000000000000000000000000000000000000064",
          "blockHash": "0x9712e501b2956dcf8d483ecb6fa8817576fc6820bd81eac5f2db61d54e81c6a0",
          "blockNumber": "0x1e261c2",
          "blockTimestamp": "0x690b8aec",
          "transactionHash": "0x3e7b1b120a5b099c48dac383556fbe2ffb63f547593122460a536ffe53fdf528",
          "transactionIndex": "0x0",
          "logIndex": "0x2",
          "removed": false
        },
        {
          "address": "0xf2b5a7060ee08ee602ab0f98869f77ddf6a66888",
          "topics": [
            "0x67d3ef96188323cf5d0c816b97b8427d03fa851b71b113feee0468aab0a23a55"
          ],
          "data": "0x52e511f64da548ae432d93b5de6100ed6386309e898e0e72252cf2ca93d22e12000000000000000000000000b1f0982e02f9f71e60512fd47471d76610ccb55600000000000000000000000000000000000000000000000000000000000000010000000000000000000000000000000000000000000000000000000000000064",
          "blockHash": "0x9712e501b2956dcf8d483ecb6fa8817576fc6820bd81eac5f2db61d54e81c6a0",
          "blockNumber": "0x1e261c2",
          "blockTimestamp": "0x690b8aec",
          "transactionHash": "0x3e7b1b120a5b099c48dac383556fbe2ffb63f547593122460a536ffe53fdf528",
          "transactionIndex": "0x0",
          "logIndex": "0x3",
          "removed": false
        },
        {
          "address": "0x1f98400000000000000000000000000000000004",
          "topics": [
            "0x1b3d7edb2e9c0b0e7c525b20aaaef0f5940d2ed71663c7d39266ecafac728859",
            "0x0000000000000000000000000000000000000000000000000000000000000000",
            "0x000000000000000000000000f2b5a7060ee08ee602ab0f98869f77ddf6a66888",
            "0x000000000000000000000000edf51a48277b84310a9357dfca20694cfb368542"
          ],
          "data": "0x000000000000000000000000f2b5a7060ee08ee602ab0f98869f77ddf6a668880000000000000000000000000000000000000000000000000000000000000064",
          "blockHash": "0x9712e501b2956dcf8d483ecb6fa8817576fc6820bd81eac5f2db61d54e81c6a0",
          "blockNumber": "0x1e261c2",
          "blockTimestamp": "0x690b8aec",
          "transactionHash": "0x3e7b1b120a5b099c48dac383556fbe2ffb63f547593122460a536ffe53fdf528",
          "transactionIndex": "0x0",
          "logIndex": "0x4",
          "removed": false
        },
        {
          "address": "0xedf51a48277b84310a9357dfca20694cfb368542",
          "topics": [
            "0xddf252ad1be2c89b69c2b068fc378daa952ba7f163c4a11628f55a4df523b3ef",
            "0x0000000000000000000000001a72a9767ef977fb5542e0428f97ae2b753f387e",
            "0x0000000000000000000000001f98400000000000000000000000000000000004"
          ],
          "data": "0x0000000000000000000000000000000000000000000000000000000000000064",
          "blockHash": "0x9712e501b2956dcf8d483ecb6fa8817576fc6820bd81eac5f2db61d54e81c6a0",
          "blockNumber": "0x1e261c2",
          "blockTimestamp": "0x690b8aec",
          "transactionHash": "0x3e7b1b120a5b099c48dac383556fbe2ffb63f547593122460a536ffe53fdf528",
          "transactionIndex": "0x0",
          "logIndex": "0x5",
          "removed": false
        }
      ],
      "logsBloom": "0x00000000000000000000000100000000000000000000000000000000000000000000000000080000000000000000000000008080000010004000000000200000000000000000000000000008000004800410000000000000000000000018100000000000020002000000000000020800000400000000000000800010000000000000010000000008000000000000000000000000000000000080000000000000020000008000008000000000100020000000000200000000000000000000010008000002000000000000000000000000000000000040000000000000010020000010000000000000000000000000004000000000000000000080001004000000",
      "type": "0x2",
      "transactionHash": "0x3e7b1b120a5b099c48dac383556fbe2ffb63f547593122460a536ffe53fdf528",
      "transactionIndex": "0x0",
      "blockHash": "0x9712e501b2956dcf8d483ecb6fa8817576fc6820bd81eac5f2db61d54e81c6a0",
      "blockNumber": "0x1e261c2",
      "gasUsed": "0x2795c",
      "effectiveGasPrice": "0xe16",
      "blobGasPrice": "0x1",
      "from": "0xb1f0982e02f9f71e60512fd47471d76610ccb556",
      "to": "0x1a72a9767ef977fb5542e0428f97ae2b753f387e",
      "contractAddress": null
    }
  ],
  "libraries": [],
  "pending": [],
  "returns": {},
  "timestamp": 1762364141969,
  "chain": 130,
  "commit": "c45b2c4"
}