{
  "transactions": [
    {
      "hash": "0x7af3fc229bc59c54d2cad75b59907e6fac7024c6b136de765b2ee6d0fabaea3d",
      "transactionType": "CALL",
      "contractName": null,
      "contractAddress": "0xeb0563d8efa1dd1a65b4cf8052638a647889dd8e",
      "function": "approve(address,uint256)",
      "arguments": [
        "0x6369e0c539c7adBdE099E2C49881fBe703004415",
        "100"
      ],
      "transaction": {
        "from": "0xb1f0982e02f9f71e60512fd47471d76610ccb556",
        "to": "0xeb0563d8efa1dd1a65b4cf8052638a647889dd8e",
        "gas": "0xf8bf",
        "value": "0x0",
        "input": "0x095ea7b30000000000000000000000006369e0c539c7adbde099e2c49881fbe7030044150000000000000000000000000000000000000000000000000000000000000064",
        "nonce": "0x1f",
        "chainId": "0x82"
      },
      "additionalContracts": [],
      "isFixedGasLimit": false
    },
    {
      "hash": "0x0a634929b92e87c5e3460e469359ecd667197ecd759ba4802e8899b90bce47f8",
      "transactionType": "CALL",
      "contractName": null,
      "contractAddress": "0x6369e0c539c7adbde099e2c49881fbe703004415",
      "function": "fillOrder(((address,address,uint24,int24,address),address,bool,uint256,uint160),bytes)",
      "arguments": [
        "((0x348Bdb9c6dBE3A5F643c2524cBaeC788eA2c9053, 0xEB0563D8eFA1dD1a65B4cf8052638A647889DD8e, 8388608, 60, 0x48E29d47E70c5bDD6b271dAf47f4454EaA8F6888), 0xb1F0982E02f9F71E60512fd47471d76610CcB556, true, 100, 79228162514264337593543950336)",
        "0x0000000000000000000000006369e0c539c7adbde099e2c49881fbe703004415"
      ],
      "transaction": {
        "from": "0xb1f0982e02f9f71e60512fd47471d76610ccb556",
        "to": "0x6369e0c539c7adbde099e2c49881fbe703004415",
        "gas": "0x39e3c",
        "value": "0x0",
        "input": "0x23ee3f42000000000000000000000000348bdb9c6dbe3a5f643c2524cbaec788ea2c9053000000000000000000000000eb0563d8efa1dd1a65b4cf8052638a647889dd8e0000000000000000000000000000000000000000000000000000000000800000000000000000000000000000000000000000000000000000000000000000003c00000000000000000000000048e29d47e70c5bdd6b271daf47f4454eaa8f6888000000000000000000000000b1f0982e02f9f71e60512fd47471d76610ccb556000000000000000000000000000000000000000000000000000000000000000100000000000000000000000000000000000000000000000000000000000000640000000000000000000000000000000000000001000000000000000000000000000000000000000000000000000000000000000000000000000000000000014000000000000000000000000000000000000000000000000000000000000000200000000000000000000000006369e0c539c7adbde099e2c49881fbe703004415",
        "nonce": "0x20",
        "chainId": "0x82"
      },
      "additionalContracts": [],
      "isFixedGasLimit": false
    }
  ],
  "receipts": [
    {
      "status": "0x1",
      "cumulativeGasUsed": "0xb417",
      "logs": [
        {
          "address": "0xeb0563d8efa1dd1a65b4cf8052638a647889dd8e",
          "topics": [
            "0x8c5be1e5ebec7d5bd14f71427d1e84f3dd0314c0f7b2291e5b200ac8c7c3b925",
            "0x000000000000000000000000b1f0982e02f9f71e60512fd47471d76610ccb556",
            "0x0000000000000000000000006369e0c539c7adbde099e2c49881fbe703004415"
          ],
          "data": "0x0000000000000000000000000000000000000000000000000000000000000064",
          "blockHash": "0xa88e322d0d826aa52501caddf93c9e17642b222f9a2f7cede0954d14c9087885",
          "blockNumber": "0x1e261cc",
          "blockTimestamp": "0x690b8b0f",
          "transactionHash": "0x7af3fc229bc59c54d2cad75b59907e6fac7024c6b136de765b2ee6d0fabaea3d",
          "transactionIndex": "0x0",
          "logIndex": "0x0",
          "removed": false
        }
      ],
      "logsBloom": "0x00000000000000000000000000200000000000000000000000000000000000000000000400000000000000000000000000000000000000000000000000200000000000000000000000000000100000000010000000000000000000000000000000000000000000000000000000000000000000000000000000020020000000000000000000000000000000000000000000000000000000000000000000000000020000000000000000000000000000000000000200000000000000000000000000000000000000000000000000004000000000000000000000000000010000000010000000000000000000000000000000000000000000000000000000000000",
      "type": "0x2",
      "transactionHash": "0x7af3fc229bc59c54d2cad75b59907e6fac7024c6b136de765b2ee6d0fabaea3d",
      "transactionIndex": "0x0",
      "blockHash": "0xa88e322d0d826aa52501caddf93c9e17642b222f9a2f7cede0954d14c9087885",
      "blockNumber": "0x1e261cc",
      "gasUsed": "0xb417",
      "effectiveGasPrice": "0xdf8",
      "blobGasPrice": "0x1",
      "from": "0xb1f0982e02f9f71e60512fd47471d76610ccb556",
      "to": "0xeb0563d8efa1dd1a65b4cf8052638a647889dd8e",
      "contractAddress": null
    },
    {
      "status": "0x1",
      "cumulativeGasUsed": "0x27953",
      "logs": [
        {
          "address": "0xeb0563d8efa1dd1a65b4cf8052638a647889dd8e",
          "topics": [
            "0xddf252ad1be2c89b69c2b068fc378daa952ba7f163c4a11628f55a4df523b3ef",
            "0x000000000000000000000000b1f0982e02f9f71e60512fd47471d76610ccb556",
            "0x0000000000000000000000006369e0c539c7adbde099e2c49881fbe703004415"
          ],
          "data": "0x0000000000000000000000000000000000000000000000000000000000000064",
          "blockHash": "0x76022f2e1bece612d9041187d532d8e59e511aa6c78eccc37f2516081f92a1e6",
          "blockNumber": "0x1e261cd",
          "blockTimestamp": "0x690b8b0f",
          "transactionHash": "0x0a634929b92e87c5e3460e469359ecd667197ecd759ba4802e8899b90bce47f8",
          "transactionIndex": "0x0",
          "logIndex": "0x0",
          "removed": false
        },
        {
          "address": "0xeb0563d8efa1dd1a65b4cf8052638a647889dd8e",
          "topics": [
            "0x8c5be1e5ebec7d5bd14f71427d1e84f3dd0314c0f7b2291e5b200ac8c7c3b925",
            "0x0000000000000000000000006369e0c539c7adbde099e2c49881fbe703004415",
            "0x00000000000000000000000048e29d47e70c5bdd6b271daf47f4454eaa8f6888"
          ],
          "data": "0x0000000000000000000000000000000000000000000000000000000000000064",
          "blockHash": "0x76022f2e1bece612d9041187d532d8e59e511aa6c78eccc37f2516081f92a1e6",
          "blockNumber": "0x1e261cd",
          "blockTimestamp": "0x690b8b0f",
          "transactionHash": "0x0a634929b92e87c5e3460e469359ecd667197ecd759ba4802e8899b90bce47f8",
          "transactionIndex": "0x0",
          "logIndex": "0x1",
          "removed": false
        },
        {
          "address": "0x1f98400000000000000000000000000000000004",
          "topics": [
            "0x1b3d7edb2e9c0b0e7c525b20aaaef0f5940d2ed71663c7d39266ecafac728859",
            "0x00000000000000000000000048e29d47e70c5bdd6b271daf47f4454eaa8f6888",
            "0x000000000000000000000000b1f0982e02f9f71e60512fd47471d76610ccb556",
            "0x000000000000000000000000348bdb9c6dbe3a5f643c2524cbaec788ea2c9053"
          ],
          "data": "0x00000000000000000000000048e29d47e70c5bdd6b271daf47f4454eaa8f68880000000000000000000000000000000000000000000000000000000000000064",
          "blockHash": "0x76022f2e1bece612d9041187d532d8e59e511aa6c78eccc37f2516081f92a1e6",
          "blockNumber": "0x1e261cd",
          "blockTimestamp": "0x690b8b0f",
          "transactionHash": "0x0a634929b92e87c5e3460e469359ecd667197ecd759ba4802e8899b90bce47f8",
          "transactionIndex": "0x0",
          "logIndex": "0x2",
          "removed": false
        },
        {
          "address": "0x48e29d47e70c5bdd6b271daf47f4454eaa8f6888",
          "topics": [
            "0x67d3ef96188323cf5d0c816b97b8427d03fa851b71b113feee0468aab0a23a55"
          ],
          "data": "0x976b34cbff9ff5c58c8e27935cae23535b746fe185b193dfd13ecb4d08048f47000000000000000000000000b1f0982e02f9f71e60512fd47471d76610ccb55600000000000000000000000000000000000000000000000000000000000000010000000000000000000000000000000000000000000000000000000000000064",
          "blockHash": "0x76022f2e1bece612d9041187d532d8e59e511aa6c78eccc37f2516081f92a1e6",
          "blockNumber": "0x1e261cd",
          "blockTimestamp": "0x690b8b0f",
          "transactionHash": "0x0a634929b92e87c5e3460e469359ecd667197ecd759ba4802e8899b90bce47f8",
          "transactionIndex": "0x0",
          "logIndex": "0x3",
          "removed": false
        },
        {
          "address": "0x1f98400000000000000000000000000000000004",
          "topics": [
            "0x1b3d7edb2e9c0b0e7c525b20aaaef0f5940d2ed71663c7d39266ecafac728859",
            "0x0000000000000000000000000000000000000000000000000000000000000000",
            "0x00000000000000000000000048e29d47e70c5bdd6b271daf47f4454eaa8f6888",
            "0x000000000000000000000000eb0563d8efa1dd1a65b4cf8052638a647889dd8e"
          ],
          "data": "0x00000000000000000000000048e29d47e70c5bdd6b271daf47f4454eaa8f68880000000000000000000000000000000000000000000000000000000000000064",
          "blockHash": "0x76022f2e1bece612d9041187d532d8e59e511aa6c78eccc37f2516081f92a1e6",
          "blockNumber": "0x1e261cd",
          "blockTimestamp": "0x690b8b0f",
          "transactionHash": "0x0a634929b92e87c5e3460e469359ecd667197ecd759ba4802e8899b90bce47f8",
          "transactionIndex": "0x0",
          "logIndex": "0x4",
          "removed": false
        },
        {
          "address": "0xeb0563d8efa1dd1a65b4cf8052638a647889dd8e",
          "topics": [
            "0xddf252ad1be2c89b69c2b068fc378daa952ba7f163c4a11628f55a4df523b3ef",
            "0x0000000000000000000000006369e0c539c7adbde099e2c49881fbe703004415",
            "0x0000000000000000000000001f98400000000000000000000000000000000004"
          ],
          "data": "0x0000000000000000000000000000000000000000000000000000000000000064",
          "blockHash": "0x76022f2e1bece612d9041187d532d8e59e511aa6c78eccc37f2516081f92a1e6",
          "blockNumber": "0x1e261cd",
          "blockTimestamp": "0x690b8b0f",
          "transactionHash": "0x0a634929b92e87c5e3460e469359ecd667197ecd759ba4802e8899b90bce47f8",
          "transactionIndex": "0x0",
          "logIndex": "0x5",
          "removed": false
        }
      ],
      "logsBloom": "0x00000000000000000000000000200000000000000010000000000000000000000000000400000000000000000000000000000000000000004000000000200000000002000800000000000008100004000410400000000000000000000010108000000000020002000000000000000840200400000000000000020030000000000000090000000000000000000000000000000000000000000000000000000000020000008000000000000000100020000000000200000000000000200000000000000002000000000000000000004000000000000000000000000000010030000010000000000000000000000000080000000000000008000000000004000000",
      "type": "0x2",
      "transactionHash": "0x0a634929b92e87c5e3460e469359ecd667197ecd759ba4802e8899b90bce47f8",
      "transactionIndex": "0x0",
      "blockHash": "0x76022f2e1bece612d9041187d532d8e59e511aa6c78eccc37f2516081f92a1e6",
      "blockNumber": "0x1e261cd",
      "gasUsed": "0x27953",
      "effectiveGasPrice": "0xdf7",
      "blobGasPrice": "0x1",
      "from": "0xb1f0982e02f9f71e60512fd47471d76610ccb556",
      "to": "0x6369e0c539c7adbde099e2c49881fbe703004415",
      "contractAddress": null
    }
  ],
  "libraries": [],
  "pending": [],
  "returns": {},
  "timestamp": 1762364176711,
  "chain": 130,
  "commit": "c45b2c4"
}