{
  "transactions": [
    {
      "hash": "0x0e58a884975885efe72871cb5e56a44e5363dda3c349212dbb1a348d9f55e3da",
      "transactionType": "CALL",
      "contractName": null,
      "contractAddress": "0x3f67b2a1517084fb431d73144f229d01a67b585c",
      "function": "approve(address,uint256)",
      "arguments": [
        "0xFA02a0957C6EE50Bdf1584f0823e4533861EC802",
        "100"
      ],
      "transaction": {
        "from": "0xb1f0982e02f9f71e60512fd47471d76610ccb556",
        "to": "0x3f67b2a1517084fb431d73144f229d01a67b585c",
        "gas": "0x10772",
        "value": "0x0",
        "input": "0x095ea7b3000000000000000000000000fa02a0957c6ee50bdf1584f0823e4533861ec8020000000000000000000000000000000000000000000000000000000000000064",
        "nonce": "0x9",
        "chainId": "0x82"
      },
      "additionalContracts": [],
      "isFixedGasLimit": false
    },
    {
      "hash": "0x42730b4494e388889bd548c3799838da304b1beb688e754cf927d0c8f21b6551",
      "transactionType": "CALL",
      "contractName": null,
      "contractAddress": "0xfa02a0957c6ee50bdf1584f0823e4533861ec802",
      "function": "fillOrder(((address,address,uint24,int24,address),address,bool,uint256,uint160),bytes)",
      "arguments": [
        "((0x3a8bFF21Ae6Af8bbD2F19a62f0c75F9589289679, 0x3F67B2a1517084fB431d73144f229D01a67b585c, 8388608, 60, 0x18f84B5cDB8Fa9B7B5D13298191a53c8bB6CA888), 0xb1F0982E02f9F71E60512fd47471d76610CcB556, true, 100, 79228162514264337593543950336)",
        "0x000000000000000000000000fa02a0957c6ee50bdf1584f0823e4533861ec802"
      ],
      "transaction": {
        "from": "0xb1f0982e02f9f71e60512fd47471d76610ccb556",
        "to": "0xfa02a0957c6ee50bdf1584f0823e4533861ec802",
        "gas": "0x36ad2",
        "value": "0x0",
        "input": "0x23ee3f420000000000000000000000003a8bff21ae6af8bbd2f19a62f0c75f95892896790000000000000000000000003f67b2a1517084fb431d73144f229d01a67b585c0000000000000000000000000000000000000000000000000000000000800000000000000000000000000000000000000000000000000000000000000000003c00000000000000000000000018f84b5cdb8fa9b7b5d13298191a53c8bb6ca888000000000000000000000000b1f0982e02f9f71e60512fd47471d76610ccb55600000000000000000000000000000000000000000000000000000000000000010000000000000000000000000000000000000000000000000000000000000064000000000000000000000000000000000000000100000000000000000000000000000000000000000000000000000000000000000000000000000000000001400000000000000000000000000000000000000000000000000000000000000020000000000000000000000000fa02a0957c6ee50bdf1584f0823e4533861ec802",
        "nonce": "0xa",
        "chainId": "0x82"
      },
      "additionalContracts": [],
      "isFixedGasLimit": false
    }
  ],
  "receipts": [
    {
      "status": "0x1",
      "cumulativeGasUsed": "0xb423",
      "logs": [
        {
          "address": "0x3f67b2a1517084fb431d73144f229d01a67b585c",
          "topics": [
            "0x8c5be1e5ebec7d5bd14f71427d1e84f3dd0314c0f7b2291e5b200ac8c7c3b925",
            "0x000000000000000000000000b1f0982e02f9f71e60512fd47471d76610ccb556",
            "0x000000000000000000000000fa02a0957c6ee50bdf1584f0823e4533861ec802"
          ],
          "data": "0x0000000000000000000000000000000000000000000000000000000000000064",
          "blockHash": "0xa37729e9741266f155e4b44bd379d20a4ee096bc264808ea454a7a2fad7cfd4e",
          "blockNumber": "0x1b89041",
          "blockTimestamp": "0x68e1b086",
          "transactionHash": "0x0e58a884975885efe72871cb5e56a44e5363dda3c349212dbb1a348d9f55e3da",
          "transactionIndex": "0x0",
          "logIndex": "0x0",
          "removed": false
        }
      ],
      "logsBloom": "0x00000000000000000000000000000000000000000000000000000000000000000000000000000000000000000000000000000000000000000000000000200000000000000000000000000000000000040010000000000000000000000000000000000000000000000000000000000000000000000000000000000000000000000000000000000000000000000000000000000000008000000000000000000000020000000000000000010000000000000000000200000000010000000000000000000000000000000000000000000000000000000000000000000000010000000010000000000000000000000008000000000000400000000000000000000000",
      "type": "0x2",
      "transactionHash": "0x0e58a884975885efe72871cb5e56a44e5363dda3c349212dbb1a348d9f55e3da",
      "transactionIndex": "0x0",
      "blockHash": "0xa37729e9741266f155e4b44bd379d20a4ee096bc264808ea454a7a2fad7cfd4e",
      "blockNumber": "0x1b89041",
      "gasUsed": "0xb423",
      "effectiveGasPrice": "0x925",
      "blobGasPrice": "0x1",
      "from": "0xb1f0982e02f9f71e60512fd47471d76610ccb556",
      "to": "0x3f67b2a1517084fb431d73144f229d01a67b585c",
      "contractAddress": null
    },
    {
      "status": "0x1",
      "cumulativeGasUsed": "0x2795c",
      "logs": [
        {
          "address": "0x3f67b2a1517084fb431d73144f229d01a67b585c",
          "topics": [
            "0xddf252ad1be2c89b69c2b068fc378daa952ba7f163c4a11628f55a4df523b3ef",
            "0x000000000000000000000000b1f0982e02f9f71e60512fd47471d76610ccb556",
            "0x000000000000000000000000fa02a0957c6ee50bdf1584f0823e4533861ec802"
          ],
          "data": "0x0000000000000000000000000000000000000000000000000000000000000064",
          "blockHash": "0xdae5ec121ad7da6263154114a3a62e02c5080a7c215d229d3257393a39c2349e",
          "blockNumber": "0x1b89042",
          "blockTimestamp": "0x68e1b086",
          "transactionHash": "0x42730b4494e388889bd548c3799838da304b1beb688e754cf927d0c8f21b6551",
          "transactionIndex": "0x0",
          "logIndex": "0x0",
          "removed": false
        },
        {
          "address": "0x3f67b2a1517084fb431d73144f229d01a67b585c",
          "topics": [
            "0x8c5be1e5ebec7d5bd14f71427d1e84f3dd0314c0f7b2291e5b200ac8c7c3b925",
            "0x000000000000000000000000fa02a0957c6ee50bdf1584f0823e4533861ec802",
            "0x00000000000000000000000018f84b5cdb8fa9b7b5d13298191a53c8bb6ca888"
          ],
          "data": "0x0000000000000000000000000000000000000000000000000000000000000064",
          "blockHash": "0xdae5ec121ad7da6263154114a3a62e02c5080a7c215d229d3257393a39c2349e",
          "blockNumber": "0x1b89042",
          "blockTimestamp": "0x68e1b086",
          "transactionHash": "0x42730b4494e388889bd548c3799838da304b1beb688e754cf927d0c8f21b6551",
          "transactionIndex": "0x0",
          "logIndex": "0x1",
          "removed": false
        },
        {
          "address": "0x1f98400000000000000000000000000000000004",
          "topics": [
            "0x1b3d7edb2e9c0b0e7c525b20aaaef0f5940d2ed71663c7d39266ecafac728859",
            "0x00000000000000000000000018f84b5cdb8fa9b7b5d13298191a53c8bb6ca888",
            "0x000000000000000000000000b1f0982e02f9f71e60512fd47471d76610ccb556",
            "0x0000000000000000000000003a8bff21ae6af8bbd2f19a62f0c75f9589289679"
          ],
          "data": "0x00000000000000000000000018f84b5cdb8fa9b7b5d13298191a53c8bb6ca8880000000000000000000000000000000000000000000000000000000000000064",
          "blockHash": "0xdae5ec121ad7da6263154114a3a62e02c5080a7c215d229d3257393a39c2349e",
          "blockNumber": "0x1b89042",
          "blockTimestamp": "0x68e1b086",
          "transactionHash": "0x42730b4494e388889bd548c3799838da304b1beb688e754cf927d0c8f21b6551",
          "transactionIndex": "0x0",
          "logIndex": "0x2",
          "removed": false
        },
        {
          "address": "0x18f84b5cdb8fa9b7b5d13298191a53c8bb6ca888",
          "topics": [
            "0x67d3ef96188323cf5d0c816b97b8427d03fa851b71b113feee0468aab0a23a55"
          ],
          "data": "0x76b6ca4f7817bd30ff256c26a8ce93e404e12c1883826dda6d0a83261b32448a000000000000000000000000b1f0982e02f9f71e60512fd47471d76610ccb55600000000000000000000000000000000000000000000000000000000000000010000000000000000000000000000000000000000000000000000000000000064",
          "blockHash": "0xdae5ec121ad7da6263154114a3a62e02c5080a7c215d229d3257393a39c2349e",
          "blockNumber": "0x1b89042",
          "blockTimestamp": "0x68e1b086",
          "transactionHash": "0x42730b4494e388889bd548c3799838da304b1beb688e754cf927d0c8f21b6551",
          "transactionIndex": "0x0",
          "logIndex": "0x3",
          "removed": false
        },
        {
          "address": "0x1f98400000000000000000000000000000000004",
          "topics": [
            "0x1b3d7edb2e9c0b0e7c525b20aaaef0f5940d2ed71663c7d39266ecafac728859",
            "0x0000000000000000000000000000000000000000000000000000000000000000",
            "0x00000000000000000000000018f84b5cdb8fa9b7b5d13298191a53c8bb6ca888",
            "0x0000000000000000000000003f67b2a1517084fb431d73144f229d01a67b585c"
          ],
          "data": "0x00000000000000000000000018f84b5cdb8fa9b7b5d13298191a53c8bb6ca8880000000000000000000000000000000000000000000000000000000000000064",
          "blockHash": "0xdae5ec121ad7da6263154114a3a62e02c5080a7c215d229d3257393a39c2349e",
          "blockNumber": "0x1b89042",
          "blockTimestamp": "0x68e1b086",
          "transactionHash": "0x42730b4494e388889bd548c3799838da304b1beb688e754cf927d0c8f21b6551",
          "transactionIndex": "0x0",
          "logIndex": "0x4",
          "removed": false
        },
        {
          "address": "0x3f67b2a1517084fb431d73144f229d01a67b585c",
          "topics": [
            "0xddf252ad1be2c89b69c2b068fc378daa952ba7f163c4a11628f55a4df523b3ef",
            "0x000000000000000000000000fa02a0957c6ee50bdf1584f0823e4533861ec802",
            "0x0000000000000000000000001f98400000000000000000000000000000000004"
          ],
          "data": "0x0000000000000000000000000000000000000000000000000000000000000064",
          "blockHash": "0xdae5ec121ad7da6263154114a3a62e02c5080a7c215d229d3257393a39c2349e",
          "blockNumber": "0x1b89042",
          "blockTimestamp": "0x68e1b086",
          "transactionHash": "0x42730b4494e388889bd548c3799838da304b1beb688e754cf927d0c8f21b6551",
          "transactionIndex": "0x0",
          "logIndex": "0x5",
          "removed": false
        }
      ],
      "logsBloom": "0x00000010000000000000000000000000000000020000000000000000000000000000000000000000000000200000000000000000000000004000000000200000000000000000000010000008000004040410000000000000000000000010100000000000020002000000000000000800000400000000000004000010000000000000010400000000000000000000000000040000008000000000000000000000028000008000000000010000100020010000000200000000010000000000000000000002000000000000000000000000000000000000000000000000010020000010000000000000004001000008000000000000400000000000000104000000",
      "type": "0x2",
      "transactionHash": "0x42730b4494e388889bd548c3799838da304b1beb688e754cf927d0c8f21b6551",
      "transactionIndex": "0x0",
      "blockHash": "0xdae5ec121ad7da6263154114a3a62e02c5080a7c215d229d3257393a39c2349e",
      "blockNumber": "0x1b89042",
      "gasUsed": "0x2795c",
      "effectiveGasPrice": "0x91a",
      "blobGasPrice": "0x1",
      "from": "0xb1f0982e02f9f71e60512fd47471d76610ccb556",
      "to": "0xfa02a0957c6ee50bdf1584f0823e4533861ec802",
      "contractAddress": null
    }
  ],
  "libraries": [],
  "pending": [],
  "returns": {},
  "timestamp": 1759621255057,
  "chain": 130,
  "commit": "253caff"
}