{
  "transactions": [
    {
      "hash": "0xc701ad385d2c56bfcc61549148d2045fa604755047d5f4af48ed5c387597e597",
      "transactionType": "CALL",
      "contractName": null,
      "contractAddress": "0x7d494331786a250fe5f1548f26bffb39ec3d2179",
      "function": "approve(address,uint256)",
      "arguments": [
        "0x6Abd9A3e3A26141D36810012977a121516fFA806",
        "100"
      ],
      "transaction": {
        "from": "0xb1f0982e02f9f71e60512fd47471d76610ccb556",
        "to": "0x7d494331786a250fe5f1548f26bffb39ec3d2179",
        "gas": "0xf8bf",
        "value": "0x0",
        "input": "0x095ea7b30000000000000000000000006abd9a3e3a26141d36810012977a121516ffa8060000000000000000000000000000000000000000000000000000000000000064",
        "nonce": "0xc",
        "chainId": "0x82"
      },
      "additionalContracts": [],
      "isFixedGasLimit": false
    },
    {
      "hash": "0x6321e046c34e0a1326b5522bd99f7524bd8154108627a8d34b2c7546c06c9212",
      "transactionType": "CALL",
      "contractName": null,
      "contractAddress": "0x6abd9a3e3a26141d36810012977a121516ffa806",
      "function": "fillOrder(((address,address,uint24,int24,address),address,bool,uint256,uint160),bytes)",
      "arguments": [
        "((0x7108288814b78B4A3D342Edd75914e5Dc993DDCD, 0x7D494331786A250FE5f1548f26bFFB39ec3d2179, 8388608, 60, 0x18f84B5cDB8Fa9B7B5D13298191a53c8bB6CA888), 0xb1F0982E02f9F71E60512fd47471d76610CcB556, true, 100, 79228162514264337593543950336)",
        "0x0000000000000000000000006abd9a3e3a26141d36810012977a121516ffa806"
      ],
      "transaction": {
        "from": "0xb1f0982e02f9f71e60512fd47471d76610ccb556",
        "to": "0x6abd9a3e3a26141d36810012977a121516ffa806",
        "gas": "0x39e3a",
        "value": "0x0",
        "input": "0x23ee3f420000000000000000000000007108288814b78b4a3d342edd75914e5dc993ddcd0000000000000000000000007d494331786a250fe5f1548f26bffb39ec3d21790000000000000000000000000000000000000000000000000000000000800000000000000000000000000000000000000000000000000000000000000000003c00000000000000000000000018f84b5cdb8fa9b7b5d13298191a53c8bb6ca888000000000000000000000000b1f0982e02f9f71e60512fd47471d76610ccb556000000000000000000000000000000000000000000000000000000000000000100000000000000000000000000000000000000000000000000000000000000640000000000000000000000000000000000000001000000000000000000000000000000000000000000000000000000000000000000000000000000000000014000000000000000000000000000000000000000000000000000000000000000200000000000000000000000006abd9a3e3a26141d36810012977a121516ffa806",
        "nonce": "0xd",
        "chainId": "0x82"
      },
      "additionalContracts": [],
      "isFixedGasLimit": false
    }
  ],
  "receipts": [
    {
      "status": "0x1",
      "cumulativeGasUsed": "0xb417",
      "logs": [
        {
          "address": "0x7d494331786a250fe5f1548f26bffb39ec3d2179",
          "topics": [
            "0x8c5be1e5ebec7d5bd14f71427d1e84f3dd0314c0f7b2291e5b200ac8c7c3b925",
            "0x000000000000000000000000b1f0982e02f9f71e60512fd47471d76610ccb556",
            "0x0000000000000000000000006abd9a3e3a26141d36810012977a121516ffa806"
          ],
          "data": "0x0000000000000000000000000000000000000000000000000000000000000064",
          "blockHash": "0x18ba41ffe67b8a412785b5b013c4e2156b3e7cdb7fbdc1a90c46e7b52fdcdb3f",
          "blockNumber": "0x1cafc92",
          "blockTimestamp": "0x68f41c9f",
          "transactionHash": "0xc701ad385d2c56bfcc61549148d2045fa604755047d5f4af48ed5c387597e597",
          "transactionIndex": "0x0",
          "logIndex": "0x0",
          "removed": false
        }
      ],
      "logsBloom": "0x00000200000000000000000000000000000000000000000000000000000000000000000000000000000000000000000000000000000000000000000000200000000000000000000000000000000000000010000000000000000000000000000000001000000000000000000000000000000000000000000020000000000000000000000000000000000000000000000000000000000000000000000000000000020000000000000000000000000000000000000200000000000020000000000000000000000000000000000000000000000000000000000000000000010000000010000000000200000000000000000000000002000000000000000000000000",
      "type": "0x2",
      "transactionHash": "0xc701ad385d2c56bfcc61549148d2045fa604755047d5f4af48ed5c387597e597",
      "transactionIndex": "0x0",
      "blockHash": "0x18ba41ffe67b8a412785b5b013c4e2156b3e7cdb7fbdc1a90c46e7b52fdcdb3f",
      "blockNumber": "0x1cafc92",
      "gasUsed": "0xb417",
      "effectiveGasPrice": "0xe3a",
      "blobGasPrice": "0x1",
      "from": "0xb1f0982e02f9f71e60512fd47471d76610ccb556",
      "to": "0x7d494331786a250fe5f1548f26bffb39ec3d2179",
      "contractAddress": null
    },
    {
      "status": "0x1",
      "cumulativeGasUsed": "0x27952",
      "logs": [
        {
          "address": "0x7d494331786a250fe5f1548f26bffb39ec3d2179",
          "topics": [
            "0xddf252ad1be2c89b69c2b068fc378daa952ba7f163c4a11628f55a4df523b3ef",
            "0x000000000000000000000000b1f0982e02f9f71e60512fd47471d76610ccb556",
            "0x0000000000000000000000006abd9a3e3a26141d36810012977a121516ffa806"
          ],
          "data": "0x0000000000000000000000000000000000000000000000000000000000000064",
          "blockHash": "0x6ee416ff338ee7bc181f529ccef389a8eb2bcfdcdbf82fe82aafe99926d40117",
          "blockNumber": "0x1cafc93",
          "blockTimestamp": "0x68f41c9f",
          "transactionHash": "0x6321e046c34e0a1326b5522bd99f7524bd8154108627a8d34b2c7546c06c9212",
          "transactionIndex": "0x0",
          "logIndex": "0x0",
          "removed": false
        },
        {
          "address": "0x7d494331786a250fe5f1548f26bffb39ec3d2179",
          "topics": [
            "0x8c5be1e5ebec7d5bd14f71427d1e84f3dd0314c0f7b2291e5b200ac8c7c3b925",
            "0x0000000000000000000000006abd9a3e3a26141d36810012977a121516ffa806",
            "0x00000000000000000000000018f84b5cdb8fa9b7b5d13298191a53c8bb6ca888"
          ],
          "data": "0x0000000000000000000000000000000000000000000000000000000000000064",
          "blockHash": "0x6ee416ff338ee7bc181f529ccef389a8eb2bcfdcdbf82fe82aafe99926d40117",
          "blockNumber": "0x1cafc93",
          "blockTimestamp": "0x68f41c9f",
          "transactionHash": "0x6321e046c34e0a1326b5522bd99f7524bd8154108627a8d34b2c7546c06c9212",
          "transactionIndex": "0x0",
          "logIndex": "0x1",
          "removed": false
        },
        {
          "address": "0x1f98400000000000000000000000000000000004",
          "topics": [
            "0x1b3d7edb2e9c0b0e7c525b20aaaef0f5940d2ed71663c7d39266ecafac728859",
            "0x00000000000000000000000018f84b5cdb8fa9b7b5d13298191a53c8bb6ca888",
            "0x000000000000000000000000b1f0982e02f9f71e60512fd47471d76610ccb556",
            "0x0000000000000000000000007108288814b78b4a3d342edd75914e5dc993ddcd"
          ],
          "data": "0x00000000000000000000000018f84b5cdb8fa9b7b5d13298191a53c8bb6ca8880000000000000000000000000000000000000000000000000000000000000064",
          "blockHash": "0x6ee416ff338ee7bc181f529ccef389a8eb2bcfdcdbf82fe82aafe99926d40117",
          "blockNumber": "0x1cafc93",
          "blockTimestamp": "0x68f41c9f",
          "transactionHash": "0x6321e046c34e0a1326b5522bd99f7524bd8154108627a8d34b2c7546c06c9212",
          "transactionIndex": "0x0",
          "logIndex": "0x2",
          "removed": false
        },
        {
          "address": "0x18f84b5cdb8fa9b7b5d13298191a53c8bb6ca888",
          "topics": [
            "0x67d3ef96188323cf5d0c816b97b8427d03fa851b71b113feee0468aab0a23a55"
          ],
          "data": "0x27245c53b24e9aa819be6c921fd79d4e27bee7a412db3049ef8c6efa097577cb000000000000000000000000b1f0982e02f9f71e60512fd47471d76610ccb55600000000000000000000000000000000000000000000000000000000000000010000000000000000000000000000000000000000000000000000000000000064",
          "blockHash": "0x6ee416ff338ee7bc181f529ccef389a8eb2bcfdcdbf82fe82aafe99926d40117",
          "blockNumber": "0x1cafc93",
          "blockTimestamp": "0x68f41c9f",
          "transactionHash": "0x6321e046c34e0a1326b5522bd99f7524bd8154108627a8d34b2c7546c06c9212",
          "transactionIndex": "0x0",
          "logIndex": "0x3",
          "removed": false
        },
        {
          "address": "0x1f98400000000000000000000000000000000004",
          "topics": [
            "0x1b3d7edb2e9c0b0e7c525b20aaaef0f5940d2ed71663c7d39266ecafac728859",
            "0x0000000000000000000000000000000000000000000000000000000000000000",
            "0x00000000000000000000000018f84b5cdb8fa9b7b5d13298191a53c8bb6ca888",
            "0x0000000000000000000000007d494331786a250fe5f1548f26bffb39ec3d2179"
          ],
          "data": "0x00000000000000000000000018f84b5cdb8fa9b7b5d13298191a53c8bb6ca8880000000000000000000000000000000000000000000000000000000000000064",
          "blockHash": "0x6ee416ff338ee7bc181f529ccef389a8eb2bcfdcdbf82fe82aafe99926d40117",
          "blockNumber": "0x1cafc93",
          "blockTimestamp": "0x68f41c9f",
          "transactionHash": "0x6321e046c34e0a1326b5522bd99f7524bd8154108627a8d34b2c7546c06c9212",
          "transactionIndex": "0x0",
          "logIndex": "0x4",
          "removed": false
        },
        {
          "address": "0x7d494331786a250fe5f1548f26bffb39ec3d2179",
          "topics": [
            "0xddf252ad1be2c89b69c2b068fc378daa952ba7f163c4a11628f55a4df523b3ef",
            "0x0000000000000000000000006abd9a3e3a26141d36810012977a121516ffa806",
            "0x0000000000000000000000001f98400000000000000000000000000000000004"
          ],
          "data": "0x0000000000000000000000000000000000000000000000000000000000000064",
          "blockHash": "0x6ee416ff338ee7bc181f529ccef389a8eb2bcfdcdbf82fe82aafe99926d40117",
          "blockNumber": "0x1cafc93",
          "blockTimestamp": "0x68f41c9f",
          "transactionHash": "0x6321e046c34e0a1326b5522bd99f7524bd8154108627a8d34b2c7546c06c9212",
          "transactionIndex": "0x0",
          "logIndex": "0x5",
          "removed": false
        }
      ],
      "logsBloom": "0x00000210000000000000000000000000000000000000000000000000000000000000000000000000000000200000000400000000000000004000000000200000000000000000000010000008000004000410000000000000000000000010100002001000020002000200000000000800000400000000000024000010000000000000010000000000000000000200000000000000000000000000000000000000028000008000000000000000100020000000000200000000000020000000000000000002000000000000000000000000000000000000000000000000010020000010000000000200000001000000000000000002008000800000000004000000",
      "type": "0x2",
      "transactionHash": "0x6321e046c34e0a1326b5522bd99f7524bd8154108627a8d34b2c7546c06c9212",
      "transactionIndex": "0x0",
      "blockHash": "0x6ee416ff338ee7bc181f529ccef389a8eb2bcfdcdbf82fe82aafe99926d40117",
      "blockNumber": "0x1cafc93",
      "gasUsed": "0x27952",
      "effectiveGasPrice": "0xe30",
      "blobGasPrice": "0x1",
      "from": "0xb1f0982e02f9f71e60512fd47471d76610ccb556",
      "to": "0x6abd9a3e3a26141d36810012977a121516ffa806",
      "contractAddress": null
    }
  ],
  "libraries": [],
  "pending": [],
  "returns": {},
  "timestamp": 1760828576858,
  "chain": 130,
  "commit": "14720f3"
}