{
  "transactions": [
    {
      "hash": "0xdbdede730562072670102899b0e469a0d0f91d4616d8ec62dba1009b84b07c14",
      "transactionType": "CALL",
      "contractName": null,
      "contractAddress": "0xc4c5ae5670eb841cdb6b4fa304de21b5831a2468",
      "function": "approve(address,uint256)",
      "arguments": [
        "0x7108288814b78B4A3D342Edd75914e5Dc993DDCD",
        "100"
      ],
      "transaction": {
        "from": "0xb1f0982e02f9f71e60512fd47471d76610ccb556",
        "to": "0xc4c5ae5670eb841cdb6b4fa304de21b5831a2468",
        "gas": "0x10772",
        "value": "0x0",
        "input": "0x095ea7b30000000000000000000000007108288814b78b4a3d342edd75914e5dc993ddcd0000000000000000000000000000000000000000000000000000000000000064",
        "nonce": "0xe",
        "chainId": "0x82"
      },
      "additionalContracts": [],
      "isFixedGasLimit": false
    },
    {
      "hash": "0x52edcd7fda83f1a9ca56f3bab4487692b41a31c0c8e0a565e47df884b7a7c950",
      "transactionType": "CALL",
      "contractName": null,
      "contractAddress": "0x7108288814b78b4a3d342edd75914e5dc993ddcd",
      "function": "fillOrder(((address,address,uint24,int24,address),address,bool,uint256,uint160),bytes)",
      "arguments": [
        "((0x593dF21b9E668bc7589f7D230BFeE197B96DFD5f, 0xc4c5ae5670Eb841cdb6b4FA304De21b5831a2468, 8388608, 60, 0xF2B5a7060eE08Ee602ab0f98869F77Ddf6a66888), 0xb1F0982E02f9F71E60512fd47471d76610CcB556, true, 100, 79228162514264337593543950336)",
        "0x0000000000000000000000007108288814b78b4a3d342edd75914e5dc993ddcd"
      ],
      "transaction": {
        "from": "0xb1f0982e02f9f71e60512fd47471d76610ccb556",
        "to": "0x7108288814b78b4a3d342edd75914e5dc993ddcd",
        "gas": "0x36ad2",
        "value": "0x0",
        "input": "0x23ee3f42000000000000000000000000593df21b9e668bc7589f7d230bfee197b96dfd5f000000000000000000000000c4c5ae5670eb841cdb6b4fa304de21b5831a24680000000000000000000000000000000000000000000000000000000000800000000000000000000000000000000000000000000000000000000000000000003c000000000000000000000000f2b5a7060ee08ee602ab0f98869f77ddf6a66888000000000000000000000000b1f0982e02f9f71e60512fd47471d76610ccb556000000000000000000000000000000000000000000000000000000000000000100000000000000000000000000000000000000000000000000000000000000640000000000000000000000000000000000000001000000000000000000000000000000000000000000000000000000000000000000000000000000000000014000000000000000000000000000000000000000000000000000000000000000200000000000000000000000007108288814b78b4a3d342edd75914e5dc993ddcd",
        "nonce": "0xf",
        "chainId": "0x82"
      },
      "additionalContracts": [],
      "isFixedGasLimit": false
    }
  ],
  "receipts": [
    {
      "status": "0x1",
      "cumulativeGasUsed": "0xb423",
      "logs": [
        {
          "address": "0xc4c5ae5670eb841cdb6b4fa304de21b5831a2468",
          "topics": [
            "0x8c5be1e5ebec7d5bd14f71427d1e84f3dd0314c0f7b2291e5b200ac8c7c3b925",
            "0x000000000000000000000000b1f0982e02f9f71e60512fd47471d76610ccb556",
            "0x0000000000000000000000007108288814b78b4a3d342edd75914e5dc993ddcd"
          ],
          "data": "0x0000000000000000000000000000000000000000000000000000000000000064",
          "blockHash": "0x06a78dfd342682cf97150706bba2106b7d93c50967d94bbd8cd864835072e2f6",
          "blockNumber": "0x1e30550",
          "blockTimestamp": "0x690c252a",
          "transactionHash": "0xdbdede730562072670102899b0e469a0d0f91d4616d8ec62dba1009b84b07c14",
          "transactionIndex": "0x0",
          "logIndex": "0x0",
          "removed": false
        }
      ],
      "logsBloom": "0x00000200000000000000000000000000000000000000000000000000000000000000000000200000000000000000000000000000000000000000000000200000000000000000000000000000000000000010000000000000000000000000000002000000000000001200000000000000000000000000000000000000000000000000000000000000000000000000000000000000000000000000000000000000020000000000000000000000000000000000000200000000000000000000000000000000000000000000000000000000000000000000000000000000010000000010000000000000000000000000000000000000000000800000000000000000",
      "type": "0x2",
      "transactionHash": "0xdbdede730562072670102899b0e469a0d0f91d4616d8ec62dba1009b84b07c14",
      "transactionIndex": "0x0",
      "blockHash": "0x06a78dfd342682cf97150706bba2106b7d93c50967d94bbd8cd864835072e2f6",
      "blockNumber": "0x1e30550",
      "gasUsed": "0xb423",
      "effectiveGasPrice": "0xe42",
      "blobGasPrice": "0x1",
      "from": "0xb1f0982e02f9f71e60512fd47471d76610ccb556",
      "to": "0xc4c5ae5670eb841cdb6b4fa304de21b5831a2468",
      "contractAddress": null
    },
    {
      "status": "0x1",
      "cumulativeGasUsed": "0x2795c",
      "logs": [
        {
          "address": "0xc4c5ae5670eb841cdb6b4fa304de21b5831a2468",
          "topics": [
            "0xddf252ad1be2c89b69c2b068fc378daa952ba7f163c4a11628f55a4df523b3ef",
            "0x000000000000000000000000b1f0982e02f9f71e60512fd47471d76610ccb556",
            "0x0000000000000000000000007108288814b78b4a3d342edd75914e5dc993ddcd"
          ],
          "data": "0x0000000000000000000000000000000000000000000000000000000000000064",
          "blockHash": "0x55bd120ebe4f89b849c9b0e3ead7354070bd193887d87971a734bc6a6e496f67",
          "blockNumber": "0x1e30551",
          "blockTimestamp": "0x690c252a",
          "transactionHash": "0x52edcd7fda83f1a9ca56f3bab4487692b41a31c0c8e0a565e47df884b7a7c950",
          "transactionIndex": "0x0",
          "logIndex": "0x0",
          "removed": false
        },
        {
          "address": "0xc4c5ae5670eb841cdb6b4fa304de21b5831a2468",
          "topics": [
            "0x8c5be1e5ebec7d5bd14f71427d1e84f3dd0314c0f7b2291e5b200ac8c7c3b925",
            "0x0000000000000000000000007108288814b78b4a3d342edd75914e5dc993ddcd",
            "0x000000000000000000000000f2b5a7060ee08ee602ab0f98869f77ddf6a66888"
          ],
          "data": "0x0000000000000000000000000000000000000000000000000000000000000064",
          "blockHash": "0x55bd120ebe4f89b849c9b0e3ead7354070bd193887d87971a734bc6a6e496f67",
          "blockNumber": "0x1e30551",
          "blockTimestamp": "0x690c252a",
          "transactionHash": "0x52edcd7fda83f1a9ca56f3bab4487692b41a31c0c8e0a565e47df884b7a7c950",
          "transactionIndex": "0x0",
          "logIndex": "0x1",
          "removed": false
        },
        {
          "address": "0x1f98400000000000000000000000000000000004",
          "topics": [
            "0x1b3d7edb2e9c0b0e7c525b20aaaef0f5940d2ed71663c7d39266ecafac728859",
            "0x000000000000000000000000f2b5a7060ee08ee602ab0f98869f77ddf6a66888",
            "0x000000000000000000000000b1f0982e02f9f71e60512fd47471d76610ccb556",
            "0x000000000000000000000000593df21b9e668bc7589f7d230bfee197b96dfd5f"
          ],
          "data": "0x000000000000000000000000f2b5a7060ee08ee602ab0f98869f77ddf6a668880000000000000000000000000000000000000000000000000000000000000064",
          "blockHash": "0x55bd120ebe4f89b849c9b0e3ead7354070bd193887d87971a734bc6a6e496f67",
          "blockNumber": "0x1e30551",
          "blockTimestamp": "0x690c252a",
          "transactionHash": "0x52edcd7fda83f1a9ca56f3bab4487692b41a31c0c8e0a565e47df884b7a7c950",
          "transactionIndex": "0x0",
          "logIndex": "0x2",
          "removed": false
        },
        {
          "address": "0xf2b5a7060ee08ee602ab0f98869f77ddf6a66888",
          "topics": [
            "0x67d3ef96188323cf5d0c816b97b8427d03fa851b71b113feee0468aab0a23a55"
          ],
          "data": "0xbdee129ad037fddf53adabfe4224b882947aa60a7bc14de25f4b366bee6a8645000000000000000000000000b1f0982e02f9f71e60512fd47471d76610ccb55600000000000000000000000000000000000000000000000000000000000000010000000000000000000000000000000000000000000000000000000000000064",
          "blockHash": "0x55bd120ebe4f89b849c9b0e3ead7354070bd193887d87971a734bc6a6e496f67",
          "blockNumber": "0x1e30551",
          "blockTimestamp": "0x690c252a",
          "transactionHash": "0x52edcd7fda83f1a9ca56f3bab4487692b41a31c0c8e0a565e47df884b7a7c950",
          "transactionIndex": "0x0",
          "logIndex": "0x3",
          "removed": false
        },
        {
          "address": "0x1f98400000000000000000000000000000000004",
          "topics": [
            "0x1b3d7edb2e9c0b0e7c525b20aaaef0f5940d2ed71663c7d39266ecafac728859",
            "0x0000000000000000000000000000000000000000000000000000000000000000",
            "0x000000000000000000000000f2b5a7060ee08ee602ab0f98869f77ddf6a66888",
            "0x000000000000000000000000c4c5ae5670eb841cdb6b4fa304de21b5831a2468"
          ],
          "data": "0x000000000000000000000000f2b5a7060ee08ee602ab0f98869f77ddf6a668880000000000000000000000000000000000000000000000000000000000000064",
          "blockHash": "0x55bd120ebe4f89b849c9b0e3ead7354070bd193887d87971a734bc6a6e496f67",
          "blockNumber": "0x1e30551",
          "blockTimestamp": "0x690c252a",
          "transactionHash": "0x52edcd7fda83f1a9ca56f3bab4487692b41a31c0c8e0a565e47df884b7a7c950",
          "transactionIndex": "0x0",
          "logIndex": "0x4",
          "removed": false
        },
        {
          "address": "0xc4c5ae5670eb841cdb6b4fa304de21b5831a2468",
          "topics": [
            "0xddf252ad1be2c89b69c2b068fc378daa952ba7f163c4a11628f55a4df523b3ef",
            "0x0000000000000000000000007108288814b78b4a3d342edd75914e5dc993ddcd",
            "0x0000000000000000000000001f98400000000000000000000000000000000004"
          ],
          "data": "0x0000000000000000000000000000000000000000000000000000000000000064",
          "blockHash": "0x55bd120ebe4f89b849c9b0e3ead7354070bd193887d87971a734bc6a6e496f67",
          "blockNumber": "0x1e30551",
          "blockTimestamp": "0x690c252a",
          "transactionHash": "0x52edcd7fda83f1a9ca56f3bab4487692b41a31c0c8e0a565e47df884b7a7c950",
          "transactionIndex": "0x0",
          "logIndex": "0x5",
          "removed": false
        }
      ],
      "logsBloom": "0x00000200000000000000000000000000000000000000000000000000000000000000000000280000000000000000000000000000000000004000000200200000000000000000000000000008000004000410000000000000200000000010100002000000020002001200000000000800000400000000000004800010000000080000010000000008000000000000000000000000000000000000000000000400020000008000008000000000100020000000000200000000000000000000000000000002000000000000000000000000000000000040000000000000010020000010000000000000000000000000000010000000000000800000001004000000",
      "type": "0x2",
      "transactionHash": "0x52edcd7fda83f1a9ca56f3bab4487692b41a31c0c8e0a565e47df884b7a7c950",
      "transactionIndex": "0x0",
      "blockHash": "0x55bd120ebe4f89b849c9b0e3ead7354070bd193887d87971a734bc6a6e496f67",
      "blockNumber": "0x1e30551",
      "gasUsed": "0x2795c",
      "effectiveGasPrice": "0xe37",
      "blobGasPrice": "0x1",
      "from": "0xb1f0982e02f9f71e60512fd47471d76610ccb556",
      "to": "0x7108288814b78b4a3d342edd75914e5dc993ddcd",
      "contractAddress": null
    }
  ],
  "libraries": [],
  "pending": [],
  "returns": {},
  "timestamp": 1762403627170,
  "chain": 130,
  "commit": "c45b2c4"
}