{
  "transactions": [
    {
      "hash": "0xdf4b680104cb87a07aeb00ab9eca36140ed7d6e805393e1278de374408fdd983",
      "transactionType": "CALL",
      "contractName": null,
      "contractAddress": "0x593df21b9e668bc7589f7d230bfee197b96dfd5f",
      "function": "approve(address,uint256)",
      "arguments": [
        "0x7108288814b78B4A3D342Edd75914e5Dc993DDCD",
        "100"
      ],
      "transaction": {
        "from": "0xb1f0982e02f9f71e60512fd47471d76610ccb556",
        "to": "0x593df21b9e668bc7589f7d230bfee197b96dfd5f",
        "gas": "0x10772",
        "value": "0x0",
        "input": "0x095ea7b30000000000000000000000007108288814b78b4a3d342edd75914e5dc993ddcd0000000000000000000000000000000000000000000000000000000000000064",
        "nonce": "0xc",
        "chainId": "0x82"
      },
      "additionalContracts": [],
      "isFixedGasLimit": false
    },
    {
      "hash": "0xbf82adef5683ff82f59d8843af59d80ffd449b4ccb74853e6056f25ff9695ec7",
      "transactionType": "CALL",
      "contractName": null,
      "contractAddress": "0x7108288814b78b4a3d342edd75914e5dc993ddcd",
      "function": "swap(((address,address,uint24,int24,address),address,bool,uint256,uint160),bytes)",
      "arguments": [
        "((0x593dF21b9E668bc7589f7D230BFeE197B96DFD5f, 0xc4c5ae5670Eb841cdb6b4FA304De21b5831a2468, 8388608, 60, 0xF2B5a7060eE08Ee602ab0f98869F77Ddf6a66888), 0xb1F0982E02f9F71E60512fd47471d76610CcB556, true, 100, 79228162514264337593543950336)",
        "0x000000000000000000000000b1f0982e02f9f71e60512fd47471d76610ccb5560000000000000000000000007108288814b78b4a3d342edd75914e5dc993ddcd"
      ],
      "transaction": {
        "from": "0xb1f0982e02f9f71e60512fd47471d76610ccb556",
        "to": "0x7108288814b78b4a3d342edd75914e5dc993ddcd",
        "gas": "0x3a4cf",
        "value": "0x0",
        "input": "0xfa3eeee0000000000000000000000000593df21b9e668bc7589f7d230bfee197b96dfd5f000000000000000000000000c4c5ae5670eb841cdb6b4fa304de21b5831a24680000000000000000000000000000000000000000000000000000000000800000000000000000000000000000000000000000000000000000000000000000003c000000000000000000000000f2b5a7060ee08ee602ab0f98869f77ddf6a66888000000000000000000000000b1f0982e02f9f71e60512fd47471d76610ccb55600000000000000000000000000000000000000000000000000000000000000010000000000000000000000000000000000000000000000000000000000000064000000000000000000000000000000000000000100000000000000000000000000000000000000000000000000000000000000000000000000000000000001400000000000000000000000000000000000000000000000000000000000000040000000000000000000000000b1f0982e02f9f71e60512fd47471d76610ccb5560000000000000000000000007108288814b78b4a3d342edd75914e5dc993ddcd",
        "nonce": "0xd",
        "chainId": "0x82"
      },
      "additionalContracts": [],
      "isFixedGasLimit": false
    }
  ],
  "receipts": [
    {
      "status": "0x1",
      "cumulativeGasUsed": "0xb423",
      "logs": [
        {
          "address": "0x593df21b9e668bc7589f7d230bfee197b96dfd5f",
          "topics": [
            "0x8c5be1e5ebec7d5bd14f71427d1e84f3dd0314c0f7b2291e5b200ac8c7c3b925",
            "0x000000000000000000000000b1f0982e02f9f71e60512fd47471d76610ccb556",
            "0x0000000000000000000000007108288814b78b4a3d342edd75914e5dc993ddcd"
          ],
          "data": "0x0000000000000000000000000000000000000000000000000000000000000064",
          "blockHash": "0x3386f8c6f5d836b3ce273fa7e5c4395e88cf0655004ad1d5db7f2a5c4489d933",
          "blockNumber": "0x1e367d5",
          "blockTimestamp": "0x690c87a6",
          "transactionHash": "0xdf4b680104cb87a07aeb00ab9eca36140ed7d6e805393e1278de374408fdd983",
          "transactionIndex": "0x0",
          "logIndex": "0x0",
          "removed": false
        }
      ],
      "logsBloom": "0x00000000000000000000000000000000000000000000000000000000000000000000000000000000000000000000000000000000000000000000000000200000000000000000000000000000000000000010000000000000000000000000000002000000000000000200000000000000000000000000000000000000000000000000000000000000000000000000800000000000000000000000000000000000020000000000000000000000000000000000000200000040000000000000000000000000000000000000000000000000000000000000000000000000010000000010000000000000000000000000200000000000000000800000000000000000",
      "type": "0x2",
      "transactionHash": "0xdf4b680104cb87a07aeb00ab9eca36140ed7d6e805393e1278de374408fdd983",
      "transactionIndex": "0x0",
      "blockHash": "0x3386f8c6f5d836b3ce273fa7e5c4395e88cf0655004ad1d5db7f2a5c4489d933",
      "blockNumber": "0x1e367d5",
      "gasUsed": "0xb423",
      "effectiveGasPrice": "0xab",
      "blobGasPrice": "0x1",
      "from": "0xb1f0982e02f9f71e60512fd47471d76610ccb556",
      "to": "0x593df21b9e668bc7589f7d230bfee197b96dfd5f",
      "contractAddress": null
    },
    {
      "status": "0x1",
      "cumulativeGasUsed": "0x3577a",
      "logs": [
        {
          "address": "0x1f98400000000000000000000000000000000004",
          "topics": [
            "0x1b3d7edb2e9c0b0e7c525b20aaaef0f5940d2ed71663c7d39266ecafac728859",
            "0x0000000000000000000000000000000000000000000000000000000000000000",
            "0x000000000000000000000000f2b5a7060ee08ee602ab0f98869f77ddf6a66888",
            "0x000000000000000000000000593df21b9e668bc7589f7d230bfee197b96dfd5f"
          ],
          "data": "0x000000000000000000000000f2b5a7060ee08ee602ab0f98869f77ddf6a668880000000000000000000000000000000000000000000000000000000000000064",
          "blockHash": "0x3386f8c6f5d836b3ce273fa7e5c4395e88cf0655004ad1d5db7f2a5c4489d933",
          "blockNumber": "0x1e367d5",
          "blockTimestamp": "0x690c87a6",
          "transactionHash": "0xbf82adef5683ff82f59d8843af59d80ffd449b4ccb74853e6056f25ff9695ec7",
          "transactionIndex": "0x1",
          "logIndex": "0x1",
          "removed": false
        },
        {
          "address": "0xf2b5a7060ee08ee602ab0f98869f77ddf6a66888",
          "topics": [
            "0x187ad8378f5ce3f2c9e529a7c5df71c69513d720748308e7d02b8cc0377100cc",
            "0x0000000000000000000000000000000000000000000000000000000000000001",
            "0x0000000000000000000000000000000000000000000000000000000000000064"
          ],
          "data": "0xbdee129ad037fddf53adabfe4224b882947aa60a7bc14de25f4b366bee6a8645000000000000000000000000b1f0982e02f9f71e60512fd47471d76610ccb556",
          "blockHash": "0x3386f8c6f5d836b3ce273fa7e5c4395e88cf0655004ad1d5db7f2a5c4489d933",
          "blockNumber": "0x1e367d5",
          "blockTimestamp": "0x690c87a6",
          "transactionHash": "0xbf82adef5683ff82f59d8843af59d80ffd449b4ccb74853e6056f25ff9695ec7",
          "transactionIndex": "0x1",
          "logIndex": "0x2",
          "removed": false
        },
        {
          "address": "0xf2b5a7060ee08ee602ab0f98869f77ddf6a66888",
          "topics": [
            "0x365f10e9e7ce45d7acfd986c42e0b666f8af282e440e6dafc78c1f2b2f786760",
            "0xbdee129ad037fddf53adabfe4224b882947aa60a7bc14de25f4b366bee6a8645",
            "0x0000000000000000000000007108288814b78b4a3d342edd75914e5dc993ddcd"
          ],
          "data": "0x0000000000000000000000000000000000000000000000000000000000000064000000000000000000000000000000000000000000000000000000000000000000000000000000000000000000000000000000000000000000000000000000000000000000000000000000000000000000000000000000000000000000000000",
          "blockHash": "0x3386f8c6f5d836b3ce273fa7e5c4395e88cf0655004ad1d5db7f2a5c4489d933",
          "blockNumber": "0x1e367d5",
          "blockTimestamp": "0x690c87a6",
          "transactionHash": "0xbf82adef5683ff82f59d8843af59d80ffd449b4ccb74853e6056f25ff9695ec7",
          "transactionIndex": "0x1",
          "logIndex": "0x3",
          "removed": false
        },
        {
          "address": "0x1f98400000000000000000000000000000000004",
          "topics": [
            "0x40e9cecb9f5f1f1c5b9c97dec2917b7ee92e57ba5563708daca94dd84ad7112f",
            "0xbdee129ad037fddf53adabfe4224b882947aa60a7bc14de25f4b366bee6a8645",
            "0x0000000000000000000000007108288814b78b4a3d342edd75914e5dc993ddcd"
          ],
          "data": "0x000000000000000000000000000000000000000000000000000000000000000000000000000000000000000000000000000000000000000000000000000000000000000000000000000000000000000000000001000000000000000000000000000000000000000000000000000000000000000000000000000000000000000000000000000000000000000000000000000000000000000000000000000000000000000000000000000000000000000000000000000000000000000000000000",
          "blockHash": "0x3386f8c6f5d836b3ce273fa7e5c4395e88cf0655004ad1d5db7f2a5c4489d933",
          "blockNumber": "0x1e367d5",
          "blockTimestamp": "0x690c87a6",
          "transactionHash": "0xbf82adef5683ff82f59d8843af59d80ffd449b4ccb74853e6056f25ff9695ec7",
          "transactionIndex": "0x1",
          "logIndex": "0x4",
          "removed": false
        },
        {
          "address": "0x593df21b9e668bc7589f7d230bfee197b96dfd5f",
          "topics": [
            "0xddf252ad1be2c89b69c2b068fc378daa952ba7f163c4a11628f55a4df523b3ef",
            "0x000000000000000000000000b1f0982e02f9f71e60512fd47471d76610ccb556",
            "0x0000000000000000000000001f98400000000000000000000000000000000004"
          ],
          "data": "0x0000000000000000000000000000000000000000000000000000000000000064",
          "blockHash": "0x3386f8c6f5d836b3ce273fa7e5c4395e88cf0655004ad1d5db7f2a5c4489d933",
          "blockNumber": "0x1e367d5",
          "blockTimestamp": "0x690c87a6",
          "transactionHash": "0xbf82adef5683ff82f59d8843af59d80ffd449b4ccb74853e6056f25ff9695ec7",
          "transactionIndex": "0x1",
          "logIndex": "0x5",
          "removed": false
        }
      ],
      "logsBloom": "0x000000000000000000000000000000000010000000000002000000000000000000000000000800000000000000000000000100000400000000400002000c0000000000000000000000000008000005000410000000040020000000000000100002000000020002000200000000000800000000000000008004800010000000040000010000000008000000000100800000000000000000000000000000000000000000008000008000040000100020000000000200000040000000000000000000000002000000000000000000000000000000200040000000000000010060000000000000000000004000000000200010000000000000808000001004000000",
      "type": "0x2",
      "transactionHash": "0xbf82adef5683ff82f59d8843af59d80ffd449b4ccb74853e6056f25ff9695ec7",
      "transactionIndex": "0x1",
      "blockHash": "0x3386f8c6f5d836b3ce273fa7e5c4395e88cf0655004ad1d5db7f2a5c4489d933",
      "blockNumber": "0x1e367d5",
      "gasUsed": "0x2a357",
      "effectiveGasPrice": "0xab",
      "blobGasPrice": "0x1",
      "from": "0xb1f0982e02f9f71e60512fd47471d76610ccb556",
      "to": "0x7108288814b78b4a3d342edd75914e5dc993ddcd",
      "contractAddress": null
    }
  ],
  "libraries": [],
  "pending": [],
  "returns": {},
  "timestamp": 1762428839484,
  "chain": 130,
  "commit": "c45b2c4"
}