{
  "transactions": [
    {
      "hash": "0x003209ff33c962a0a738e1e1650b047f5ccf60ae4ad3a62ff17ad087664272cf",
      "transactionType": "CALL",
      "contractName": null,
      "contractAddress": "0x636fb6089d431cccc43b526d5473de09d4c546c6",
      "function": "approve(address,uint256)",
      "arguments": [
        "0x1a72A9767ef977Fb5542E0428F97AE2b753f387e",
        "100"
      ],
      "transaction": {
        "from": "0xb1f0982e02f9f71e60512fd47471d76610ccb556",
        "to": "0x636fb6089d431cccc43b526d5473de09d4c546c6",
        "gas": "0x10772",
        "value": "0x0",
        "input": "0x095ea7b30000000000000000000000001a72a9767ef977fb5542e0428f97ae2b753f387e0000000000000000000000000000000000000000000000000000000000000064",
        "nonce": "0x12",
        "chainId": "0x82"
      },
      "additionalContracts": [],
      "isFixedGasLimit": false
    },
    {
      "hash": "0x8066748b7ccfe84b0d2c2d0b64df73b6b09feed161a36bc05e8f88702df9cab8",
      "transactionType": "CALL",
      "contractName": null,
      "contractAddress": "0x1a72a9767ef977fb5542e0428f97ae2b753f387e",
      "function": "swap(((address,address,uint24,int24,address),address,bool,uint256,uint160),bytes)",
      "arguments": [
        "((0x636FB6089D431cccC43B526d5473de09D4C546C6, 0xeDF51A48277B84310a9357dFca20694cFb368542, 8388608, 60, 0xF2B5a7060eE08Ee602ab0f98869F77Ddf6a66888), 0xb1F0982E02f9F71E60512fd47471d76610CcB556, true, 100, 79228162514264337593543950336)",
        "0x000000000000000000000000b1f0982e02f9f71e60512fd47471d76610ccb5560000000000000000000000001a72a9767ef977fb5542e0428f97ae2b753f387e"
      ],
      "transaction": {
        "from": "0xb1f0982e02f9f71e60512fd47471d76610ccb556",
        "to": "0x1a72a9767ef977fb5542e0428f97ae2b753f387e",
        "gas": "0x3a4cf",
        "value": "0x0",
        "input": "0xfa3eeee0000000000000000000000000636fb6089d431cccc43b526d5473de09d4c546c6000000000000000000000000edf51a48277b84310a9357dfca20694cfb3685420000000000000000000000000000000000000000000000000000000000800000000000000000000000000000000000000000000000000000000000000000003c000000000000000000000000f2b5a7060ee08ee602ab0f98869f77ddf6a66888000000000000000000000000b1f0982e02f9f71e60512fd47471d76610ccb55600000000000000000000000000000000000000000000000000000000000000010000000000000000000000000000000000000000000000000000000000000064000000000000000000000000000000000000000100000000000000000000000000000000000000000000000000000000000000000000000000000000000001400000000000000000000000000000000000000000000000000000000000000040000000000000000000000000b1f0982e02f9f71e60512fd47471d76610ccb5560000000000000000000000001a72a9767ef977fb5542e0428f97ae2b753f387e",
        "nonce": "0x13",
        "chainId": "0x82"
      },
      "additionalContracts": [],
      "isFixedGasLimit": false
    }
  ],
  "receipts": [
    {
      "status": "0x1",
      "cumulativeGasUsed": "0xb423",
      "logs": [
        {
          "address": "0x636fb6089d431cccc43b526d5473de09d4c546c6",
          "topics": [
            "0x8c5be1e5ebec7d5bd14f71427d1e84f3dd0314c0f7b2291e5b200ac8c7c3b925",
            "0x000000000000000000000000b1f0982e02f9f71e60512fd47471d76610ccb556",
            "0x0000000000000000000000001a72a9767ef977fb5542e0428f97ae2b753f387e"
          ],
          "data": "0x0000000000000000000000000000000000000000000000000000000000000064",
          "blockHash": "0x96a81aeb79763455873b3c3923bc0e30f83e114fb26de332e809cb95ff10cc26",
          "blockNumber": "0x1e261bf",
          "blockTimestamp": "0x690b8ae5",
          "transactionHash": "0x003209ff33c962a0a738e1e1650b047f5ccf60ae4ad3a62ff17ad087664272cf",
          "transactionIndex": "0x0",
          "logIndex": "0x0",
          "removed": false
        }
      ],
      "logsBloom": "0x00000000000000000000000000000000000000000000000000000000000000000000000000000000000000000000000000000080000000000000000000200000000000000000000000000000000000000010000000000000000000000000000000000000000000000000000000000000000000000010000000000000000000000000000000000000000000000000000000000000000000000080000000000000020000000010000000000000000000000000000200000000000000000000000000000000000000000000000000000000000400000000000000000000010000000010000000000000000000000000004000000000000000000000000000000000",
      "type": "0x2",
      "transactionHash": "0x003209ff33c962a0a738e1e1650b047f5ccf60ae4ad3a62ff17ad087664272cf",
      "transactionIndex": "0x0",
      "blockHash": "0x96a81aeb79763455873b3c3923bc0e30f83e114fb26de332e809cb95ff10cc26",
      "blockNumber": "0x1e261bf",
      "gasUsed": "0xb423",
      "effectiveGasPrice": "0xe2b",
      "blobGasPrice": "0x1",
      "from": "0xb1f0982e02f9f71e60512fd47471d76610ccb556",
      "to": "0x636fb6089d431cccc43b526d5473de09d4c546c6",
      "contractAddress": null
    },
    {
      "status": "0x1",
      "cumulativeGasUsed": "0x2a357",
      "logs": [
        {
          "address": "0x1f98400000000000000000000000000000000004",
          "topics": [
            "0x1b3d7edb2e9c0b0e7c525b20aaaef0f5940d2ed71663c7d39266ecafac728859",
            "0x0000000000000000000000000000000000000000000000000000000000000000",
            "0x000000000000000000000000f2b5a7060ee08ee602ab0f98869f77ddf6a66888",
            "0x000000000000000000000000636fb6089d431cccc43b526d5473de09d4c546c6"
          ],
          "data": "0x000000000000000000000000f2b5a7060ee08ee602ab0f98869f77ddf6a668880000000000000000000000000000000000000000000000000000000000000064",
          "blockHash": "0x9246213400a579b7347141314427f6ed57864481bc488863e25247878cc371ae",
          "blockNumber": "0x1e261c0",
          "blockTimestamp": "0x690b8ae5",
          "transactionHash": "0x8066748b7ccfe84b0d2c2d0b64df73b6b09feed161a36bc05e8f88702df9cab8",
          "transactionIndex": "0x0",
          "logIndex": "0x0",
          "removed": false
        },
        {
          "address": "0xf2b5a7060ee08ee602ab0f98869f77ddf6a66888",
          "topics": [
            "0x187ad8378f5ce3f2c9e529a7c5df71c69513d720748308e7d02b8cc0377100cc",
            "0x0000000000000000000000000000000000000000000000000000000000000001",
            "0x0000000000000000000000000000000000000000000000000000000000000064"
          ],
          "data": "0x52e511f64da548ae432d93b5de6100ed6386309e898e0e72252cf2ca93d22e12000000000000000000000000b1f0982e02f9f71e60512fd47471d76610ccb556",
          "blockHash": "0x9246213400a579b7347141314427f6ed57864481bc488863e25247878cc371ae",
          "blockNumber": "0x1e261c0",
          "blockTimestamp": "0x690b8ae5",
          "transactionHash": "0x8066748b7ccfe84b0d2c2d0b64df73b6b09feed161a36bc05e8f88702df9cab8",
          "transactionIndex": "0x0",
          "logIndex": "0x1",
          "removed": false
        },
        {
          "address": "0xf2b5a7060ee08ee602ab0f98869f77ddf6a66888",
          "topics": [
            "0x365f10e9e7ce45d7acfd986c42e0b666f8af282e440e6dafc78c1f2b2f786760",
            "0x52e511f64da548ae432d93b5de6100ed6386309e898e0e72252cf2ca93d22e12",
            "0x0000000000000000000000001a72a9767ef977fb5542e0428f97ae2b753f387e"
          ],
          "data": "0x0000000000000000000000000000000000000000000000000000000000000064000000000000000000000000000000000000000000000000000000000000000000000000000000000000000000000000000000000000000000000000000000000000000000000000000000000000000000000000000000000000000000000000",
          "blockHash": "0x9246213400a579b7347141314427f6ed57864481bc488863e25247878cc371ae",
          "blockNumber": "0x1e261c0",
          "blockTimestamp": "0x690b8ae5",
          "transactionHash": "0x8066748b7ccfe84b0d2c2d0b64df73b6b09feed161a36bc05e8f88702df9cab8",
          "transactionIndex": "0x0",
          "logIndex": "0x2",
          "removed": false
        },
        {
          "address": "0x1f98400000000000000000000000000000000004",
          "topics": [
            "0x40e9cecb9f5f1f1c5b9c97dec2917b7ee92e57ba5563708daca94dd84ad7112f",
            "0x52e511f64da548ae432d93b5de6100ed6386309e898e0e72252cf2ca93d22e12",
            "0x0000000000000000000000001a72a9767ef977fb5542e0428f97ae2b753f387e"
          ],
          "data": "0x000000000000000000000000000000000000000000000000000000000000000000000000000000000000000000000000000000000000000000000000000000000000000000000000000000000000000000000001000000000000000000000000000000000000000000000000000000000000000000000000000000000000000000000000000000000000000000000000000000000000000000000000000000000000000000000000000000000000000000000000000000000000000000000000",
          "blockHash": "0x9246213400a579b7347141314427f6ed57864481bc488863e25247878cc371ae",
          "blockNumber": "0x1e261c0",
          "blockTimestamp": "0x690b8ae5",
          "transactionHash": "0x8066748b7ccfe84b0d2c2d0b64df73b6b09feed161a36bc05e8f88702df9cab8",
          "transactionIndex": "0x0",
          "logIndex": "0x3",
          "removed": false
        },
        {
          "address": "0x636fb6089d431cccc43b526d5473de09d4c546c6",
          "topics": [
            "0xddf252ad1be2c89b69c2b068fc378daa952ba7f163c4a11628f55a4df523b3ef",
            "0x000000000000000000000000b1f0982e02f9f71e60512fd47471d76610ccb556",
            "0x0000000000000000000000001f98400000000000000000000000000000000004"
          ],
          "data": "0x0000000000000000000000000000000000000000000000000000000000000064",
          "blockHash": "0x9246213400a579b7347141314427f6ed57864481bc488863e25247878cc371ae",
          "blockNumber": "0x1e261c0",
          "blockTimestamp": "0x690b8ae5",
          "transactionHash": "0x8066748b7ccfe84b0d2c2d0b64df73b6b09feed161a36bc05e8f88702df9cab8",
          "transactionIndex": "0x0",
          "logIndex": "0x4",
          "removed": false
        }
      ],
      "logsBloom": "0x000000000000000000000000000000000000000000000002000000000000000000000000000800000000000000000000000100800400100000400000000c0000000000000000000000000008000004800410001000040020000000000000100000000000020002000000000000000800000000000010008000800010000000040000010000000008010000000100000000000000000000000080000000000000000000008010008000040000100020000000000200000000000000000000000008000002000000000000000000000000000400000040000000000000010060000000000000000000004000000000004000000000000000008000001004080000",
      "type": "0x2",
      "transactionHash": "0x8066748b7ccfe84b0d2c2d0b64df73b6b09feed161a36bc05e8f88702df9cab8",
      "transactionIndex": "0x0",
      "blockHash": "0x9246213400a579b7347141314427f6ed57864481bc488863e25247878cc371ae",
      "blockNumber": "0x1e261c0",
      "gasUsed": "0x2a357",
      "effectiveGasPrice": "0xe23",
      "blobGasPrice": "0x1",
      "from": "0xb1f0982e02f9f71e60512fd47471d76610ccb556",
      "to": "0x1a72a9767ef977fb5542e0428f97ae2b753f387e",
      "contractAddress": null
    }
  ],
  "libraries": [],
  "pending": [],
  "returns": {},
  "timestamp": 1762364134209,
  "chain": 130,
  "commit": "c45b2c4"
}