{
  "transactions": [
    {
      "hash": "0xd0a8f3aa3c55ef5452bfbd3d12368c3124c50e47d333e55c78910ddcf32ccd97",
      "transactionType": "CALL",
      "contractName": null,
      "contractAddress": "0x348bdb9c6dbe3a5f643c2524cbaec788ea2c9053",
      "function": "approve(address,uint256)",
      "arguments": [
        "0x6369e0c539c7adBdE099E2C49881fBe703004415",
        "100"
      ],
      "transaction": {
        "from": "0xb1f0982e02f9f71e60512fd47471d76610ccb556",
        "to": "0x348bdb9c6dbe3a5f643c2524cbaec788ea2c9053",
        "gas": "0xf8bf",
        "value": "0x0",
        "input": "0x095ea7b30000000000000000000000006369e0c539c7adbde099e2c49881fbe7030044150000000000000000000000000000000000000000000000000000000000000064",
        "nonce": "0x1d",
        "chainId": "0x82"
      },
      "additionalContracts": [],
      "isFixedGasLimit": false
    },
    {
      "hash": "0x089699a0c59fffdbe467989ce61d4cd4c38aa928ee43eb6da5bbbd5d20046cf3",
      "transactionType": "CALL",
      "contractName": null,
      "contractAddress": "0x6369e0c539c7adbde099e2c49881fbe703004415",
      "function": "swap(((address,address,uint24,int24,address),address,bool,uint256,uint160),bytes)",
      "arguments": [
        "((0x348Bdb9c6dBE3A5F643c2524cBaeC788eA2c9053, 0xEB0563D8eFA1dD1a65B4cf8052638A647889DD8e, 8388608, 60, 0x48E29d47E70c5bDD6b271dAf47f4454EaA8F6888), 0xb1F0982E02f9F71E60512fd47471d76610CcB556, true, 100, 79228162514264337593543950336)",
        "0x000000000000000000000000b1f0982e02f9f71e60512fd47471d76610ccb5560000000000000000000000006369e0c539c7adbde099e2c49881fbe703004415"
      ],
      "transaction": {
        "from": "0xb1f0982e02f9f71e60512fd47471d76610ccb556",
        "to": "0x6369e0c539c7adbde099e2c49881fbe703004415",
        "gas": "0x3db9d",
        "value": "0x0",
        "input": "0xfa3eeee0000000000000000000000000348bdb9c6dbe3a5f643c2524cbaec788ea2c9053000000000000000000000000eb0563d8efa1dd1a65b4cf8052638a647889dd8e0000000000000000000000000000000000000000000000000000000000800000000000000000000000000000000000000000000000000000000000000000003c00000000000000000000000048e29d47e70c5bdd6b271daf47f4454eaa8f6888000000000000000000000000b1f0982e02f9f71e60512fd47471d76610ccb55600000000000000000000000000000000000000000000000000000000000000010000000000000000000000000000000000000000000000000000000000000064000000000000000000000000000000000000000100000000000000000000000000000000000000000000000000000000000000000000000000000000000001400000000000000000000000000000000000000000000000000000000000000040000000000000000000000000b1f0982e02f9f71e60512fd47471d76610ccb5560000000000000000000000006369e0c539c7adbde099e2c49881fbe703004415",
        "nonce": "0x1e",
        "chainId": "0x82"
      },
      "additionalContracts": [],
      "isFixedGasLimit": false
    }
  ],
  "receipts": [
    {
      "status": "0x1",
      "cumulativeGasUsed": "0xb417",
      "logs": [
        {
          "address": "0x348bdb9c6dbe3a5f643c2524cbaec788ea2c9053",
          "topics": [
            "0x8c5be1e5ebec7d5bd14f71427d1e84f3dd0314c0f7b2291e5b200ac8c7c3b925",
            "0x000000000000000000000000b1f0982e02f9f71e60512fd47471d76610ccb556",
            "0x0000000000000000000000006369e0c539c7adbde099e2c49881fbe703004415"
          ],
          "data": "0x0000000000000000000000000000000000000000000000000000000000000064",
          "blockHash": "0xd5f175c5bec342de9257ca836ac53fadccb022214bc076c4a3d1faf14f6433c3",
          "blockNumber": "0x1e261ca",
          "blockTimestamp": "0x690b8b0c",
          "transactionHash": "0xd0a8f3aa3c55ef5452bfbd3d12368c3124c50e47d333e55c78910ddcf32ccd97",
          "transactionIndex": "0x0",
          "logIndex": "0x0",
          "removed": false
        }
      ],
      "logsBloom": "0x00000000000000000000000000200000000000000000000000000000000000000000000000000000000000000000000000000000000000000000000000200000000000000000000000000010000000000010000000000000000000000000000020000000000000000000000000000000000000000000000000020020000000000000000000000000000000000000000000000000000000000000000000000000020000000000000000000000000000000000000200000000000000000000000000000000000000000000000000000000000000000000000000000000010000000010000000000000000000000000000000000000000000000000000000400000",
      "type": "0x2",
      "transactionHash": "0xd0a8f3aa3c55ef5452bfbd3d12368c3124c50e47d333e55c78910ddcf32ccd97",
      "transactionIndex": "0x0",
      "blockHash": "0xd5f175c5bec342de9257ca836ac53fadccb022214bc076c4a3d1faf14f6433c3",
      "blockNumber": "0x1e261ca",
      "gasUsed": "0xb417",
      "effectiveGasPrice": "0xdfc",
      "blobGasPrice": "0x1",
      "from": "0xb1f0982e02f9f71e60512fd47471d76610ccb556",
      "to": "0x348bdb9c6dbe3a5f643c2524cbaec788ea2c9053",
      "contractAddress": null
    },
    {
      "status": "0x1",
      "cumulativeGasUsed": "0x2a34b",
      "logs": [
        {
          "address": "0x1f98400000000000000000000000000000000004",
          "topics": [
            "0x1b3d7edb2e9c0b0e7c525b20aaaef0f5940d2ed71663c7d39266ecafac728859",
            "0x0000000000000000000000000000000000000000000000000000000000000000",
            "0x00000000000000000000000048e29d47e70c5bdd6b271daf47f4454eaa8f6888",
            "0x000000000000000000000000348bdb9c6dbe3a5f643c2524cbaec788ea2c9053"
          ],
          "data": "0x00000000000000000000000048e29d47e70c5bdd6b271daf47f4454eaa8f68880000000000000000000000000000000000000000000000000000000000000064",
          "blockHash": "0xc74e67419311c6817f45b7378c013163fe2c88e0a55ed2912ae3cd13a3be48e9",
          "blockNumber": "0x1e261cb",
          "blockTimestamp": "0x690b8b0c",
          "transactionHash": "0x089699a0c59fffdbe467989ce61d4cd4c38aa928ee43eb6da5bbbd5d20046cf3",
          "transactionIndex": "0x0",
          "logIndex": "0x0",
          "removed": false
        },
        {
          "address": "0x48e29d47e70c5bdd6b271daf47f4454eaa8f6888",
          "topics": [
            "0x187ad8378f5ce3f2c9e529a7c5df71c69513d720748308e7d02b8cc0377100cc",
            "0x0000000000000000000000000000000000000000000000000000000000000001",
            "0x0000000000000000000000000000000000000000000000000000000000000064"
          ],
          "data": "0x976b34cbff9ff5c58c8e27935cae23535b746fe185b193dfd13ecb4d08048f47000000000000000000000000b1f0982e02f9f71e60512fd47471d76610ccb556",
          "blockHash": "0xc74e67419311c6817f45b7378c013163fe2c88e0a55ed2912ae3cd13a3be48e9",
          "blockNumber": "0x1e261cb",
          "blockTimestamp": "0x690b8b0c",
          "transactionHash": "0x089699a0c59fffdbe467989ce61d4cd4c38aa928ee43eb6da5bbbd5d20046cf3",
          "transactionIndex": "0x0",
          "logIndex": "0x1",
          "removed": false
        },
        {
          "address": "0x48e29d47e70c5bdd6b271daf47f4454eaa8f6888",
          "topics": [
            "0x365f10e9e7ce45d7acfd986c42e0b666f8af282e440e6dafc78c1f2b2f786760",
            "0x976b34cbff9ff5c58c8e27935cae23535b746fe185b193dfd13ecb4d08048f47",
            "0x0000000000000000000000006369e0c539c7adbde099e2c49881fbe703004415"
          ],
          "data": "0x0000000000000000000000000000000000000000000000000000000000000064000000000000000000000000000000000000000000000000000000000000000000000000000000000000000000000000000000000000000000000000000000000000000000000000000000000000000000000000000000000000000000000000",
          "blockHash": "0xc74e67419311c6817f45b7378c013163fe2c88e0a55ed2912ae3cd13a3be48e9",
          "blockNumber": "0x1e261cb",
          "blockTimestamp": "0x690b8b0c",
          "transactionHash": "0x089699a0c59fffdbe467989ce61d4cd4c38aa928ee43eb6da5bbbd5d20046cf3",
          "transactionIndex": "0x0",
          "logIndex": "0x2",
          "removed": false
        },
        {
          "address": "0x1f98400000000000000000000000000000000004",
          "topics": [
            "0x40e9cecb9f5f1f1c5b9c97dec2917b7ee92e57ba5563708daca94dd84ad7112f",
            "0x976b34cbff9ff5c58c8e27935cae23535b746fe185b193dfd13ecb4d08048f47",
            "0x0000000000000000000000006369e0c539c7adbde099e2c49881fbe703004415"
          ],
          "data": "0x000000000000000000000000000000000000000000000000000000000000000000000000000000000000000000000000000000000000000000000000000000000000000000000000000000000000000000000001000000000000000000000000000000000000000000000000000000000000000000000000000000000000000000000000000000000000000000000000000000000000000000000000000000000000000000000000000000000000000000000000000000000000000000000000",
          "blockHash": "0xc74e67419311c6817f45b7378c013163fe2c88e0a55ed2912ae3cd13a3be48e9",
          "blockNumber": "0x1e261cb",
          "blockTimestamp": "0x690b8b0c",
          "transactionHash": "0x089699a0c59fffdbe467989ce61d4cd4c38aa928ee43eb6da5bbbd5d20046cf3",
          "transactionIndex": "0x0",
          "logIndex": "0x3",
          "removed": false
        },
        {
          "address": "0x348bdb9c6dbe3a5f643c2524cbaec788ea2c9053",
          "topics": [
            "0xddf252ad1be2c89b69c2b068fc378daa952ba7f163c4a11628f55a4df523b3ef",
            "0x000000000000000000000000b1f0982e02f9f71e60512fd47471d76610ccb556",
            "0x0000000000000000000000001f98400000000000000000000000000000000004"
          ],
          "data": "0x0000000000000000000000000000000000000000000000000000000000000064",
          "blockHash": "0xc74e67419311c6817f45b7378c013163fe2c88e0a55ed2912ae3cd13a3be48e9",
          "blockNumber": "0x1e261cb",
          "blockTimestamp": "0x690b8b0c",
          "transactionHash": "0x089699a0c59fffdbe467989ce61d4cd4c38aa928ee43eb6da5bbbd5d20046cf3",
          "transactionIndex": "0x0",
          "logIndex": "0x4",
          "removed": false
        }
      ],
      "logsBloom": "0x000000000000000000000000002000000000000000100002000000000000000000000000000000000000000000000000000104000400000000400000000c0000000002000800000000000018000004000410400000040020000000000000108020000000020002000000000000000800000000000000008000020030000000040000010000000000000000000100000000000000000000000000000000000000000000008000000000840000100020000000000200002000000000200000000000000002000000000000000000000000000000000000000000000000010070000000000000000000004000000000080000000000000008008000000004400000",
      "type": "0x2",
      "transactionHash": "0x089699a0c59fffdbe467989ce61d4cd4c38aa928ee43eb6da5bbbd5d20046cf3",
      "transactionIndex": "0x0",
      "blockHash": "0xc74e67419311c6817f45b7378c013163fe2c88e0a55ed2912ae3cd13a3be48e9",
      "blockNumber": "0x1e261cb",
      "gasUsed": "0x2a34b",
      "effectiveGasPrice": "0xdfa",
      "blobGasPrice": "0x1",
      "from": "0xb1f0982e02f9f71e60512fd47471d76610ccb556",
      "to": "0x6369e0c539c7adbde099e2c49881fbe703004415",
      "contractAddress": null
    }
  ],
  "libraries": [],
  "pending": [],
  "returns": {},
  "timestamp": 1762364173836,
  "chain": 130,
  "commit": "c45b2c4"
}