{
  "transactions": [
    {
      "hash": null,
      "transactionType": "CALL",
      "contractName": null,
      "contractAddress": "0x593df21b9e668bc7589f7d230bfee197b96dfd5f",
      "function": "approve(address,uint256)",
      "arguments": [
        "0x7108288814b78B4A3D342Edd75914e5Dc993DDCD",
        "100"
      ],
      "transaction": {
        "from": "0xb1f0982e02f9f71e60512fd47471d76610ccb556",
        "to": "0x593df21b9e668bc7589f7d230bfee197b96dfd5f",
        "gas": "0x9c8c",
        "value": "0x0",
        "input": "0x095ea7b30000000000000000000000007108288814b78b4a3d342edd75914e5dc993ddcd0000000000000000000000000000000000000000000000000000000000000064",
        "nonce": "0x12",
        "chainId": "0x82"
      },
      "additionalContracts": [],
      "isFixedGasLimit": false
    },
    {
      "hash": null,
      "transactionType": "CALL",
      "contractName": null,
      "contractAddress": "0x7108288814b78b4a3d342edd75914e5dc993ddcd",
      "function": "swap(((address,address,uint24,int24,address),address,bool,uint256,uint160),bytes)",
      "arguments": [
        "((0x593dF21b9E668bc7589f7D230BFeE197B96DFD5f, 0xc4c5ae5670Eb841cdb6b4FA304De21b5831a2468, 8388608, 60, 0xF2B5a7060eE08Ee602ab0f98869F77Ddf6a66888), 0xb1F0982E02f9F71E60512fd47471d76610CcB556, true, 100, 79228162514264337593543950336)",
        "0x000000000000000000000000b1f0982e02f9f71e60512fd47471d76610ccb5560000000000000000000000007108288814b78b4a3d342edd75914e5dc993ddcd"
      ],
      "transaction": {
        "from": "0xb1f0982e02f9f71e60512fd47471d76610ccb556",
        "to": "0x7108288814b78b4a3d342edd75914e5dc993ddcd",
        "gas": "0x2dd2c",
        "value": "0x0",
        "input": "0xfa3eeee0000000000000000000000000593df21b9e668bc7589f7d230bfee197b96dfd5f000000000000000000000000c4c5ae5670eb841cdb6b4fa304de21b5831a24680000000000000000000000000000000000000000000000000000000000800000000000000000000000000000000000000000000000000000000000000000003c000000000000000000000000f2b5a7060ee08ee602ab0f98869f77ddf6a66888000000000000000000000000b1f0982e02f9f71e60512fd47471d76610ccb55600000000000000000000000000000000000000000000000000000000000000010000000000000000000000000000000000000000000000000000000000000064000000000000000000000000000000000000000100000000000000000000000000000000000000000000000000000000000000000000000000000000000001400000000000000000000000000000000000000000000000000000000000000040000000000000000000000000b1f0982e02f9f71e60512fd47471d76610ccb5560000000000000000000000007108288814b78b4a3d342edd75914e5dc993ddcd",
        "nonce": "0x13",
        "chainId": "0x82"
      },
      "additionalContracts": [],
      "isFixedGasLimit": false
    }
  ],
  "receipts": [],
  "libraries": [],
  "pending": [],
  "returns": {},
  "timestamp": 1762419518453,
  "chain": 130,
  "commit": "c45b2c4"
}