{
  "transactions": [
    {
      "hash": "0xaaf9434e83ad9acdccac3045d6a385ec906921912d639b34ce884238177cd5c4",
      "transactionType": "CALL",
      "contractName": null,
      "contractAddress": "0x3a8bff21ae6af8bbd2f19a62f0c75f9589289679",
      "function": "approve(address,uint256)",
      "arguments": [
        "0xFA02a0957C6EE50Bdf1584f0823e4533861EC802",
        "100"
      ],
      "transaction": {
        "from": "0xb1f0982e02f9f71e60512fd47471d76610ccb556",
        "to": "0x3a8bff21ae6af8bbd2f19a62f0c75f9589289679",
        "gas": "0x10772",
        "value": "0x0",
        "input": "0x095ea7b3000000000000000000000000fa02a0957c6ee50bdf1584f0823e4533861ec8020000000000000000000000000000000000000000000000000000000000000064",
        "nonce": "0x7",
        "chainId": "0x82"
      },
      "additionalContracts": [],
      "isFixedGasLimit": false
    },
    {
      "hash": "0x9766c70252169a9e67cfcf8b95835a7b1b18c1fef9f02eec6f43f11ba1d84e83",
      "transactionType": "CALL",
      "contractName": null,
      "contractAddress": "0xfa02a0957c6ee50bdf1584f0823e4533861ec802",
      "function": "swap(((address,address,uint24,int24,address),address,bool,uint256,uint160),bytes)",
      "arguments": [
        "((0x3a8bFF21Ae6Af8bbD2F19a62f0c75F9589289679, 0x3F67B2a1517084fB431d73144f229D01a67b585c, 8388608, 60, 0x18f84B5cDB8Fa9B7B5D13298191a53c8bB6CA888), 0xb1F0982E02f9F71E60512fd47471d76610CcB556, true, 100, 79228162514264337593543950336)",
        "0x000000000000000000000000b1f0982e02f9f71e60512fd47471d76610ccb556000000000000000000000000fa02a0957c6ee50bdf1584f0823e4533861ec802"
      ],
      "transaction": {
        "from": "0xb1f0982e02f9f71e60512fd47471d76610ccb556",
        "to": "0xfa02a0957c6ee50bdf1584f0823e4533861ec802",
        "gas": "0x3a4ce",
        "value": "0x0",
        "input": "0xfa3eeee00000000000000000000000003a8bff21ae6af8bbd2f19a62f0c75f95892896790000000000000000000000003f67b2a1517084fb431d73144f229d01a67b585c0000000000000000000000000000000000000000000000000000000000800000000000000000000000000000000000000000000000000000000000000000003c00000000000000000000000018f84b5cdb8fa9b7b5d13298191a53c8bb6ca888000000000000000000000000b1f0982e02f9f71e60512fd47471d76610ccb55600000000000000000000000000000000000000000000000000000000000000010000000000000000000000000000000000000000000000000000000000000064000000000000000000000000000000000000000100000000000000000000000000000000000000000000000000000000000000000000000000000000000001400000000000000000000000000000000000000000000000000000000000000040000000000000000000000000b1f0982e02f9f71e60512fd47471d76610ccb556000000000000000000000000fa02a0957c6ee50bdf1584f0823e4533861ec802",
        "nonce": "0x8",
        "chainId": "0x82"
      },
      "additionalContracts": [],
      "isFixedGasLimit": false
    }
  ],
  "receipts": [
    {
      "status": "0x1",
      "cumulativeGasUsed": "0xb423",
      "logs": [
        {
          "address": "0x3a8bff21ae6af8bbd2f19a62f0c75f9589289679",
          "topics": [
            "0x8c5be1e5ebec7d5bd14f71427d1e84f3dd0314c0f7b2291e5b200ac8c7c3b925",
            "0x000000000000000000000000b1f0982e02f9f71e60512fd47471d76610ccb556",
            "0x000000000000000000000000fa02a0957c6ee50bdf1584f0823e4533861ec802"
          ],
          "data": "0x0000000000000000000000000000000000000000000000000000000000000064",
          "blockHash": "0xa06dad2c7ec470a0ca5bfa511b4a704b5b0efb2015a70508f7cfe20ab26decd0",
          "blockNumber": "0x1b8903f",
          "blockTimestamp": "0x68e1b082",
          "transactionHash": "0xaaf9434e83ad9acdccac3045d6a385ec906921912d639b34ce884238177cd5c4",
          "transactionIndex": "0x0",
          "logIndex": "0x0",
          "removed": false
        }
      ],
      "logsBloom": "0x0000000000000000000000000000000000000000000000000000000000000000000000000000000000000000000000000000000000000000000001000020000000000000000000000000000000000000001000002000000000000000000000000000000000000000000000000000000000000000000000000000000000000000000000000000000000000000000000000000000000000000000000000000000002000000000000000001000000000000000000020000000000000000000000000000000000000000000000000000000000000000000000000000000001000000001000000000000000000000000c000000000000400000000000000000000000",
      "type": "0x2",
      "transactionHash": "0xaaf9434e83ad9acdccac3045d6a385ec906921912d639b34ce884238177cd5c4",
      "transactionIndex": "0x0",
      "blockHash": "0xa06dad2c7ec470a0ca5bfa511b4a704b5b0efb2015a70508f7cfe20ab26decd0",
      "blockNumber": "0x1b8903f",
      "gasUsed": "0xb423",
      "effectiveGasPrice": "0x941",
      "blobGasPrice": "0x1",
      "from": "0xb1f0982e02f9f71e60512fd47471d76610ccb556",
      "to": "0x3a8bff21ae6af8bbd2f19a62f0c75f9589289679",
      "contractAddress": null
    },
    {
      "status": "0x1",
      "cumulativeGasUsed": "0x2a356",
      "logs": [
        {
          "address": "0x1f98400000000000000000000000000000000004",
          "topics": [
            "0x1b3d7edb2e9c0b0e7c525b20aaaef0f5940d2ed71663c7d39266ecafac728859",
            "0x0000000000000000000000000000000000000000000000000000000000000000",
            "0x00000000000000000000000018f84b5cdb8fa9b7b5d13298191a53c8bb6ca888",
            "0x0000000000000000000000003a8bff21ae6af8bbd2f19a62f0c75f9589289679"
          ],
          "data": "0x00000000000000000000000018f84b5cdb8fa9b7b5d13298191a53c8bb6ca8880000000000000000000000000000000000000000000000000000000000000064",
          "blockHash": "0x4624114cbc2633be833c0efba2a0d4f7260a6d7a260706aebebd9b3b40b2589a",
          "blockNumber": "0x1b89040",
          "blockTimestamp": "0x68e1b082",
          "transactionHash": "0x9766c70252169a9e67cfcf8b95835a7b1b18c1fef9f02eec6f43f11ba1d84e83",
          "transactionIndex": "0x0",
          "logIndex": "0x0",
          "removed": false
        },
        {
          "address": "0x18f84b5cdb8fa9b7b5d13298191a53c8bb6ca888",
          "topics": [
            "0x187ad8378f5ce3f2c9e529a7c5df71c69513d720748308e7d02b8cc0377100cc",
            "0x0000000000000000000000000000000000000000000000000000000000000001",
            "0x0000000000000000000000000000000000000000000000000000000000000064"
          ],
          "data": "0x76b6ca4f7817bd30ff256c26a8ce93e404e12c1883826dda6d0a83261b32448a000000000000000000000000b1f0982e02f9f71e60512fd47471d76610ccb556",
          "blockHash": "0x4624114cbc2633be833c0efba2a0d4f7260a6d7a260706aebebd9b3b40b2589a",
          "blockNumber": "0x1b89040",
          "blockTimestamp": "0x68e1b082",
          "transactionHash": "0x9766c70252169a9e67cfcf8b95835a7b1b18c1fef9f02eec6f43f11ba1d84e83",
          "transactionIndex": "0x0",
          "logIndex": "0x1",
          "removed": false
        },
        {
          "address": "0x18f84b5cdb8fa9b7b5d13298191a53c8bb6ca888",
          "topics": [
            "0x365f10e9e7ce45d7acfd986c42e0b666f8af282e440e6dafc78c1f2b2f786760",
            "0x76b6ca4f7817bd30ff256c26a8ce93e404e12c1883826dda6d0a83261b32448a",
            "0x000000000000000000000000fa02a0957c6ee50bdf1584f0823e4533861ec802"
          ],
          "data": "0x0000000000000000000000000000000000000000000000000000000000000064000000000000000000000000000000000000000000000000000000000000000000000000000000000000000000000000000000000000000000000000000000000000000000000000000000000000000000000000000000000000000000000000",
          "blockHash": "0x4624114cbc2633be833c0efba2a0d4f7260a6d7a260706aebebd9b3b40b2589a",
          "blockNumber": "0x1b89040",
          "blockTimestamp": "0x68e1b082",
          "transactionHash": "0x9766c70252169a9e67cfcf8b95835a7b1b18c1fef9f02eec6f43f11ba1d84e83",
          "transactionIndex": "0x0",
          "logIndex": "0x2",
          "removed": false
        },
        {
          "address": "0x1f98400000000000000000000000000000000004",
          "topics": [
            "0x40e9cecb9f5f1f1c5b9c97dec2917b7ee92e57ba5563708daca94dd84ad7112f",
            "0x76b6ca4f7817bd30ff256c26a8ce93e404e12c1883826dda6d0a83261b32448a",
            "0x000000000000000000000000fa02a0957c6ee50bdf1584f0823e4533861ec802"
          ],
          "data": "0x000000000000000000000000000000000000000000000000000000000000000000000000000000000000000000000000000000000000000000000000000000000000000000000000000000000000000000000001000000000000000000000000000000000000000000000000000000000000000000000000000000000000000000000000000000000000000000000000000000000000000000000000000000000000000000000000000000000000000000000000000000000000000000000000",
          "blockHash": "0x4624114cbc2633be833c0efba2a0d4f7260a6d7a260706aebebd9b3b40b2589a",
          "blockNumber": "0x1b89040",
          "blockTimestamp": "0x68e1b082",
          "transactionHash": "0x9766c70252169a9e67cfcf8b95835a7b1b18c1fef9f02eec6f43f11ba1d84e83",
          "transactionIndex": "0x0",
          "logIndex": "0x3",
          "removed": false
        },
        {
          "address": "0x3a8bff21ae6af8bbd2f19a62f0c75f9589289679",
          "topics": [
            "0xddf252ad1be2c89b69c2b068fc378daa952ba7f163c4a11628f55a4df523b3ef",
            "0x000000000000000000000000b1f0982e02f9f71e60512fd47471d76610ccb556",
            "0x0000000000000000000000001f98400000000000000000000000000000000004"
          ],
          "data": "0x0000000000000000000000000000000000000000000000000000000000000064",
          "blockHash": "0x4624114cbc2633be833c0efba2a0d4f7260a6d7a260706aebebd9b3b40b2589a",
          "blockNumber": "0x1b89040",
          "blockTimestamp": "0x68e1b082",
          "transactionHash": "0x9766c70252169a9e67cfcf8b95835a7b1b18c1fef9f02eec6f43f11ba1d84e83",
          "transactionIndex": "0x0",
          "logIndex": "0x4",
          "removed": false
        }
      ],
      "logsBloom": "0x000000100000000000000000000000000000000200000002000000000000000000000000000000000000002000000000000100000400000000400100000c000000000000000000001000000800000400041000002004002000000000000010000000000002200200000000000000080000000000040000800400001000000004000001040000000000000000010000000000000000000000000000000000000000800000800000000005000010002000000000020000000000000000000000000000000200000000000000000000000000100000000000000000000001006000000000000000000000400100000c000000000000400000008000000004000000",
      "type": "0x2",
      "transactionHash": "0x9766c70252169a9e67cfcf8b95835a7b1b18c1fef9f02eec6f43f11ba1d84e83",
      "transactionIndex": "0x0",
      "blockHash": "0x4624114cbc2633be833c0efba2a0d4f7260a6d7a260706aebebd9b3b40b2589a",
      "blockNumber": "0x1b89040",
      "gasUsed": "0x2a356",
      "effectiveGasPrice": "0x932",
      "blobGasPrice": "0x1",
      "from": "0xb1f0982e02f9f71e60512fd47471d76610ccb556",
      "to": "0xfa02a0957c6ee50bdf1584f0823e4533861ec802",
      "contractAddress": null
    }
  ],
  "libraries": [],
  "pending": [],
  "returns": {},
  "timestamp": 1759621251477,
  "chain": 130,
  "commit": "253caff"
}