{
  "transactions": [
    {
      "hash": "0x77fdf3d5c491bc8e3eec7cc4c1d0f0616c684ae33a245116f0dbceabe959599a",
      "transactionType": "CALL",
      "contractName": null,
      "contractAddress": "0x7108288814b78b4a3d342edd75914e5dc993ddcd",
      "function": "approve(address,uint256)",
      "arguments": [
        "0x6Abd9A3e3A26141D36810012977a121516fFA806",
        "100"
      ],
      "transaction": {
        "from": "0xb1f0982e02f9f71e60512fd47471d76610ccb556",
        "to": "0x7108288814b78b4a3d342edd75914e5dc993ddcd",
        "gas": "0xf8bf",
        "value": "0x0",
        "input": "0x095ea7b30000000000000000000000006abd9a3e3a26141d36810012977a121516ffa8060000000000000000000000000000000000000000000000000000000000000064",
        "nonce": "0xa",
        "chainId": "0x82"
      },
      "additionalContracts": [],
      "isFixedGasLimit": false
    },
    {
      "hash": "0xda78c27e56565835213c6d9ef92d81ab9fa75975089de45c23f5e8855304b155",
      "transactionType": "CALL",
      "contractName": null,
      "contractAddress": "0x6abd9a3e3a26141d36810012977a121516ffa806",
      "function": "swap(((address,address,uint24,int24,address),address,bool,uint256,uint160),bytes)",
      "arguments": [
        "((0x7108288814b78B4A3D342Edd75914e5Dc993DDCD, 0x7D494331786A250FE5f1548f26bFFB39ec3d2179, 8388608, 60, 0x18f84B5cDB8Fa9B7B5D13298191a53c8bB6CA888), 0xb1F0982E02f9F71E60512fd47471d76610CcB556, true, 100, 79228162514264337593543950336)",
        "0x000000000000000000000000b1f0982e02f9f71e60512fd47471d76610ccb5560000000000000000000000006abd9a3e3a26141d36810012977a121516ffa806"
      ],
      "transaction": {
        "from": "0xb1f0982e02f9f71e60512fd47471d76610ccb556",
        "to": "0x6abd9a3e3a26141d36810012977a121516ffa806",
        "gas": "0x3db9b",
        "value": "0x0",
        "input": "0xfa3eeee00000000000000000000000007108288814b78b4a3d342edd75914e5dc993ddcd0000000000000000000000007d494331786a250fe5f1548f26bffb39ec3d21790000000000000000000000000000000000000000000000000000000000800000000000000000000000000000000000000000000000000000000000000000003c00000000000000000000000018f84b5cdb8fa9b7b5d13298191a53c8bb6ca888000000000000000000000000b1f0982e02f9f71e60512fd47471d76610ccb55600000000000000000000000000000000000000000000000000000000000000010000000000000000000000000000000000000000000000000000000000000064000000000000000000000000000000000000000100000000000000000000000000000000000000000000000000000000000000000000000000000000000001400000000000000000000000000000000000000000000000000000000000000040000000000000000000000000b1f0982e02f9f71e60512fd47471d76610ccb5560000000000000000000000006abd9a3e3a26141d36810012977a121516ffa806",
        "nonce": "0xb",
        "chainId": "0x82"
      },
      "additionalContracts": [],
      "isFixedGasLimit": false
    }
  ],
  "receipts": [
    {
      "status": "0x1",
      "cumulativeGasUsed": "0xb417",
      "logs": [
        {
          "address": "0x7108288814b78b4a3d342edd75914e5dc993ddcd",
          "topics": [
            "0x8c5be1e5ebec7d5bd14f71427d1e84f3dd0314c0f7b2291e5b200ac8c7c3b925",
            "0x000000000000000000000000b1f0982e02f9f71e60512fd47471d76610ccb556",
            "0x0000000000000000000000006abd9a3e3a26141d36810012977a121516ffa806"
          ],
          "data": "0x0000000000000000000000000000000000000000000000000000000000000064",
          "blockHash": "0x350dc7b200c932948acf95c8a6987c9bcb399fe259437e2dbdf08bb4108585a8",
          "blockNumber": "0x1cafc90",
          "blockTimestamp": "0x68f41c9d",
          "transactionHash": "0x77fdf3d5c491bc8e3eec7cc4c1d0f0616c684ae33a245116f0dbceabe959599a",
          "transactionIndex": "0x0",
          "logIndex": "0x0",
          "removed": false
        }
      ],
      "logsBloom": "0x00000000000000000000000000000000000000000000000000000000000000000000000000000000000000000000000000000000000000000000000000200000000000000000000000000000000000000010000000000000000000000000000000001000000000000000000000000000000000000000000020000000000000000000000000000000000000000000000004000000000010000000000000000000020000000000000000000000000000000080000200000000000000000000000000000000000000000000000000000000000000000000000000000000010000000010000000000000000000000000000000000002000000000000000000000000",
      "type": "0x2",
      "transactionHash": "0x77fdf3d5c491bc8e3eec7cc4c1d0f0616c684ae33a245116f0dbceabe959599a",
      "transactionIndex": "0x0",
      "blockHash": "0x350dc7b200c932948acf95c8a6987c9bcb399fe259437e2dbdf08bb4108585a8",
      "blockNumber": "0x1cafc90",
      "gasUsed": "0xb417",
      "effectiveGasPrice": "0xe51",
      "blobGasPrice": "0x1",
      "from": "0xb1f0982e02f9f71e60512fd47471d76610ccb556",
      "to": "0x7108288814b78b4a3d342edd75914e5dc993ddcd",
      "contractAddress": null
    },
    {
      "status": "0x1",
      "cumulativeGasUsed": "0x2a34a",
      "logs": [
        {
          "address": "0x1f98400000000000000000000000000000000004",
          "topics": [
            "0x1b3d7edb2e9c0b0e7c525b20aaaef0f5940d2ed71663c7d39266ecafac728859",
            "0x0000000000000000000000000000000000000000000000000000000000000000",
            "0x00000000000000000000000018f84b5cdb8fa9b7b5d13298191a53c8bb6ca888",
            "0x0000000000000000000000007108288814b78b4a3d342edd75914e5dc993ddcd"
          ],
          "data": "0x00000000000000000000000018f84b5cdb8fa9b7b5d13298191a53c8bb6ca8880000000000000000000000000000000000000000000000000000000000000064",
          "blockHash": "0xae1b9f70965b6bdf31d4a93a3733ef6c475eb6456cffa7e2cd7a75491b68d224",
          "blockNumber": "0x1cafc91",
          "blockTimestamp": "0x68f41c9d",
          "transactionHash": "0xda78c27e56565835213c6d9ef92d81ab9fa75975089de45c23f5e8855304b155",
          "transactionIndex": "0x0",
          "logIndex": "0x0",
          "removed": false
        },
        {
          "address": "0x18f84b5cdb8fa9b7b5d13298191a53c8bb6ca888",
          "topics": [
            "0x187ad8378f5ce3f2c9e529a7c5df71c69513d720748308e7d02b8cc0377100cc",
            "0x0000000000000000000000000000000000000000000000000000000000000001",
            "0x0000000000000000000000000000000000000000000000000000000000000064"
          ],
          "data": "0x27245c53b24e9aa819be6c921fd79d4e27bee7a412db3049ef8c6efa097577cb000000000000000000000000b1f0982e02f9f71e60512fd47471d76610ccb556",
          "blockHash": "0xae1b9f70965b6bdf31d4a93a3733ef6c475eb6456cffa7e2cd7a75491b68d224",
          "blockNumber": "0x1cafc91",
          "blockTimestamp": "0x68f41c9d",
          "transactionHash": "0xda78c27e56565835213c6d9ef92d81ab9fa75975089de45c23f5e8855304b155",
          "transactionIndex": "0x0",
          "logIndex": "0x1",
          "removed": false
        },
        {
          "address": "0x18f84b5cdb8fa9b7b5d13298191a53c8bb6ca888",
          "topics": [
            "0x365f10e9e7ce45d7acfd986c42e0b666f8af282e440e6dafc78c1f2b2f786760",
            "0x27245c53b24e9aa819be6c921fd79d4e27bee7a412db3049ef8c6efa097577cb",
            "0x0000000000000000000000006abd9a3e3a26141d36810012977a121516ffa806"
          ],
          "data": "0x0000000000000000000000000000000000000000000000000000000000000064000000000000000000000000000000000000000000000000000000000000000000000000000000000000000000000000000000000000000000000000000000000000000000000000000000000000000000000000000000000000000000000000",
          "blockHash": "0xae1b9f70965b6bdf31d4a93a3733ef6c475eb6456cffa7e2cd7a75491b68d224",
          "blockNumber": "0x1cafc91",
          "blockTimestamp": "0x68f41c9d",
          "transactionHash": "0xda78c27e56565835213c6d9ef92d81ab9fa75975089de45c23f5e8855304b155",
          "transactionIndex": "0x0",
          "logIndex": "0x2",
          "removed": false
        },
        {
          "address": "0x1f98400000000000000000000000000000000004",
          "topics": [
            "0x40e9cecb9f5f1f1c5b9c97dec2917b7ee92e57ba5563708daca94dd84ad7112f",
            "0x27245c53b24e9aa819be6c921fd79d4e27bee7a412db3049ef8c6efa097577cb",
            "0x0000000000000000000000006abd9a3e3a26141d36810012977a121516ffa806"
          ],
          "data": "0x000000000000000000000000000000000000000000000000000000000000000000000000000000000000000000000000000000000000000000000000000000000000000000000000000000000000000000000001000000000000000000000000000000000000000000000000000000000000000000000000000000000000000000000000000000000000000000000000000000000000000000000000000000000000000000000000000000000000000000000000000000000000000000000000",
          "blockHash": "0xae1b9f70965b6bdf31d4a93a3733ef6c475eb6456cffa7e2cd7a75491b68d224",
          "blockNumber": "0x1cafc91",
          "blockTimestamp": "0x68f41c9d",
          "transactionHash": "0xda78c27e56565835213c6d9ef92d81ab9fa75975089de45c23f5e8855304b155",
          "transactionIndex": "0x0",
          "logIndex": "0x3",
          "removed": false
        },
        {
          "address": "0x7108288814b78b4a3d342edd75914e5dc993ddcd",
          "topics": [
            "0xddf252ad1be2c89b69c2b068fc378daa952ba7f163c4a11628f55a4df523b3ef",
            "0x000000000000000000000000b1f0982e02f9f71e60512fd47471d76610ccb556",
            "0x0000000000000000000000001f98400000000000000000000000000000000004"
          ],
          "data": "0x0000000000000000000000000000000000000000000000000000000000000064",
          "blockHash": "0xae1b9f70965b6bdf31d4a93a3733ef6c475eb6456cffa7e2cd7a75491b68d224",
          "blockNumber": "0x1cafc91",
          "blockTimestamp": "0x68f41c9d",
          "transactionHash": "0xda78c27e56565835213c6d9ef92d81ab9fa75975089de45c23f5e8855304b155",
          "transactionIndex": "0x0",
          "logIndex": "0x4",
          "removed": false
        }
      ],
      "logsBloom": "0x000000100000000000000000000000000000000000000002000000000000000000000000000000000000002000000000000100000400000000400000000c0000000000000000000010000008000004000410000000040020000000000000100002001000020002000200000000000800000000000000008024000010000000040000010000002000000000000100000004000000000010000000000000000000008000008000000000040000100020000080000200001000000000000800000000000002000000000000000000000000000000000000000000000000010060000000000000000000004001000000000000000002000000808000000004000000",
      "type": "0x2",
      "transactionHash": "0xda78c27e56565835213c6d9ef92d81ab9fa75975089de45c23f5e8855304b155",
      "transactionIndex": "0x0",
      "blockHash": "0xae1b9f70965b6bdf31d4a93a3733ef6c475eb6456cffa7e2cd7a75491b68d224",
      "blockNumber": "0x1cafc91",
      "gasUsed": "0x2a34a",
      "effectiveGasPrice": "0xe45",
      "blobGasPrice": "0x1",
      "from": "0xb1f0982e02f9f71e60512fd47471d76610ccb556",
      "to": "0x6abd9a3e3a26141d36810012977a121516ffa806",
      "contractAddress": null
    }
  ],
  "libraries": [],
  "pending": [],
  "returns": {},
  "timestamp": 1760828574095,
  "chain": 130,
  "commit": "14720f3"
}